{
  "_format": "hh-sol-artifact-1",
  "contractName": "Predictverse",
  "sourceName": "contracts/Predictverse.sol",
  "abi": [
    {
      "anonymous": false,
      "inputs": [
        {
          "indexed": false,
          "internalType": "address",
          "name": "previousAdmin",
          "type": "address"
        },
        {
          "indexed": false,
          "internalType": "address",
          "name": "newAdmin",
          "type": "address"
        }
      ],
      "name": "AdminChanged",
      "type": "event"
    },
    {
      "anonymous": false,
      "inputs": [
        {
          "indexed": true,
          "internalType": "address",
          "name": "beacon",
          "type": "address"
        }
      ],
      "name": "BeaconUpgraded",
      "type": "event"
    },
    {
      "anonymous": false,
      "inputs": [
        {
          "indexed": true,
          "internalType": "address",
          "name": "user",
          "type": "address"
        },
        {
          "indexed": true,
          "internalType": "uint256",
          "name": "pid",
          "type": "uint256"
        },
        {
          "indexed": false,
          "internalType": "uint256[]",
          "name": "_tokenIds",
          "type": "uint256[]"
        }
      ],
      "name": "Deposit",
      "type": "event"
    },
    {
      "anonymous": false,
      "inputs": [
        {
          "indexed": true,
          "internalType": "address",
          "name": "user",
          "type": "address"
        },
        {
          "indexed": true,
          "internalType": "uint256",
          "name": "pid",
          "type": "uint256"
        },
        {
          "indexed": false,
          "internalType": "uint256",
          "name": "amount",
          "type": "uint256"
        }
      ],
      "name": "EmergencyWithdraw",
      "type": "event"
    },
    {
      "anonymous": false,
      "inputs": [
        {
          "indexed": false,
          "internalType": "uint8",
          "name": "version",
          "type": "uint8"
        }
      ],
      "name": "Initialized",
      "type": "event"
    },
    {
      "anonymous": false,
      "inputs": [
        {
          "indexed": true,
          "internalType": "address",
          "name": "previousOwner",
          "type": "address"
        },
        {
          "indexed": true,
          "internalType": "address",
          "name": "newOwner",
          "type": "address"
        }
      ],
      "name": "OwnershipTransferred",
      "type": "event"
    },
    {
      "anonymous": false,
      "inputs": [
        {
          "indexed": false,
          "internalType": "address",
          "name": "account",
          "type": "address"
        }
      ],
      "name": "Paused",
      "type": "event"
    },
    {
      "anonymous": false,
      "inputs": [
        {
          "indexed": false,
          "internalType": "address",
          "name": "account",
          "type": "address"
        }
      ],
      "name": "Unpaused",
      "type": "event"
    },
    {
      "anonymous": false,
      "inputs": [
        {
          "indexed": true,
          "internalType": "address",
          "name": "implementation",
          "type": "address"
        }
      ],
      "name": "Upgraded",
      "type": "event"
    },
    {
      "anonymous": false,
      "inputs": [
        {
          "indexed": true,
          "internalType": "address",
          "name": "user",
          "type": "address"
        },
        {
          "indexed": true,
          "internalType": "uint256",
          "name": "pid",
          "type": "uint256"
        },
        {
          "indexed": false,
          "internalType": "uint256[]",
          "name": "_tokenIds",
          "type": "uint256[]"
        }
      ],
      "name": "Withdraw",
      "type": "event"
    },
    {
      "inputs": [],
      "name": "BONUS_MULTIPLIER",
      "outputs": [
        {
          "internalType": "uint256",
          "name": "",
          "type": "uint256"
        }
      ],
      "stateMutability": "view",
      "type": "function"
    },
    {
      "inputs": [
        {
          "internalType": "uint256",
          "name": "_allocPoint",
          "type": "uint256"
        },
        {
          "internalType": "contract IERC721",
          "name": "_nft",
          "type": "address"
        },
        {
          "internalType": "bool",
          "name": "_withUpdate",
          "type": "bool"
        }
      ],
      "name": "add",
      "outputs": [],
      "stateMutability": "nonpayable",
      "type": "function"
    },
    {
      "inputs": [],
      "name": "bank",
      "outputs": [
        {
          "internalType": "contract PredictverseBank",
          "name": "",
          "type": "address"
        }
      ],
      "stateMutability": "view",
      "type": "function"
    },
    {
      "inputs": [
        {
          "internalType": "uint256",
          "name": "_pid",
          "type": "uint256"
        },
        {
          "internalType": "uint256[]",
          "name": "_tokenIds",
          "type": "uint256[]"
        }
      ],
      "name": "deposit",
      "outputs": [],
      "stateMutability": "nonpayable",
      "type": "function"
    },
    {
      "inputs": [
        {
          "internalType": "uint256",
          "name": "_pid",
          "type": "uint256"
        },
        {
          "internalType": "uint256[]",
          "name": "_tokenIds",
          "type": "uint256[]"
        }
      ],
      "name": "emergencyWithdraw",
      "outputs": [],
      "stateMutability": "nonpayable",
      "type": "function"
    },
    {
      "inputs": [
        {
          "internalType": "uint256",
          "name": "_from",
          "type": "uint256"
        },
        {
          "internalType": "uint256",
          "name": "_to",
          "type": "uint256"
        }
      ],
      "name": "getMultiplier",
      "outputs": [
        {
          "internalType": "uint256",
          "name": "",
          "type": "uint256"
        }
      ],
      "stateMutability": "view",
      "type": "function"
    },
    {
      "inputs": [
        {
          "internalType": "address",
          "name": "_user",
          "type": "address"
        },
        {
          "internalType": "uint256",
          "name": "_pid",
          "type": "uint256"
        }
      ],
      "name": "getUserInfo",
      "outputs": [
        {
          "components": [
            {
              "internalType": "uint256",
              "name": "amount",
              "type": "uint256"
            },
            {
              "internalType": "uint256",
              "name": "rewardDebt",
              "type": "uint256"
            },
            {
              "internalType": "uint256[]",
              "name": "tokens",
              "type": "uint256[]"
            }
          ],
          "internalType": "struct Predictverse.ExternalUserInfo",
          "name": "",
          "type": "tuple"
        }
      ],
      "stateMutability": "view",
      "type": "function"
    },
    {
      "inputs": [
        {
          "internalType": "contract IBEP20",
          "name": "_pred",
          "type": "address"
        },
        {
          "internalType": "uint256",
          "name": "_predPerBlock",
          "type": "uint256"
        },
        {
          "internalType": "uint256",
          "name": "_startBlock",
          "type": "uint256"
        },
        {
          "internalType": "contract PredictverseBank",
          "name": "_bank",
          "type": "address"
        },
        {
          "internalType": "contract IERC721",
          "name": "_nft",
          "type": "address"
        }
      ],
      "name": "initialize",
      "outputs": [],
      "stateMutability": "nonpayable",
      "type": "function"
    },
    {
      "inputs": [],
      "name": "massUpdatePools",
      "outputs": [],
      "stateMutability": "nonpayable",
      "type": "function"
    },
    {
      "inputs": [
        {
          "internalType": "address",
          "name": "operator",
          "type": "address"
        },
        {
          "internalType": "address",
          "name": "from",
          "type": "address"
        },
        {
          "internalType": "uint256",
          "name": "tokenId",
          "type": "uint256"
        },
        {
          "internalType": "bytes",
          "name": "data",
          "type": "bytes"
        }
      ],
      "name": "onERC721Received",
      "outputs": [
        {
          "internalType": "bytes4",
          "name": "",
          "type": "bytes4"
        }
      ],
      "stateMutability": "pure",
      "type": "function"
    },
    {
      "inputs": [],
      "name": "owner",
      "outputs": [
        {
          "internalType": "address",
          "name": "",
          "type": "address"
        }
      ],
      "stateMutability": "view",
      "type": "function"
    },
    {
      "inputs": [],
      "name": "pause",
      "outputs": [],
      "stateMutability": "nonpayable",
      "type": "function"
    },
    {
      "inputs": [],
      "name": "paused",
      "outputs": [
        {
          "internalType": "bool",
          "name": "",
          "type": "bool"
        }
      ],
      "stateMutability": "view",
      "type": "function"
    },
    {
      "inputs": [
        {
          "internalType": "uint256",
          "name": "_pid",
          "type": "uint256"
        },
        {
          "internalType": "address",
          "name": "_user",
          "type": "address"
        }
      ],
      "name": "pendingPred",
      "outputs": [
        {
          "internalType": "uint256",
          "name": "",
          "type": "uint256"
        }
      ],
      "stateMutability": "view",
      "type": "function"
    },
    {
      "inputs": [
        {
          "internalType": "uint256",
          "name": "",
          "type": "uint256"
        }
      ],
      "name": "poolInfo",
      "outputs": [
        {
          "internalType": "contract IERC721",
          "name": "nft",
          "type": "address"
        },
        {
          "internalType": "uint256",
          "name": "allocPoint",
          "type": "uint256"
        },
        {
          "internalType": "uint256",
          "name": "lastRewardBlock",
          "type": "uint256"
        },
        {
          "internalType": "uint256",
          "name": "accPredPerShare",
          "type": "uint256"
        }
      ],
      "stateMutability": "view",
      "type": "function"
    },
    {
      "inputs": [],
      "name": "poolLength",
      "outputs": [
        {
          "internalType": "uint256",
          "name": "",
          "type": "uint256"
        }
      ],
      "stateMutability": "view",
      "type": "function"
    },
    {
      "inputs": [],
      "name": "pred",
      "outputs": [
        {
          "internalType": "contract IBEP20",
          "name": "",
          "type": "address"
        }
      ],
      "stateMutability": "view",
      "type": "function"
    },
    {
      "inputs": [],
      "name": "predPerBlock",
      "outputs": [
        {
          "internalType": "uint256",
          "name": "",
          "type": "uint256"
        }
      ],
      "stateMutability": "view",
      "type": "function"
    },
    {
      "inputs": [],
      "name": "proxiableUUID",
      "outputs": [
        {
          "internalType": "bytes32",
          "name": "",
          "type": "bytes32"
        }
      ],
      "stateMutability": "view",
      "type": "function"
    },
    {
      "inputs": [],
      "name": "renounceOwnership",
      "outputs": [],
      "stateMutability": "nonpayable",
      "type": "function"
    },
    {
      "inputs": [
        {
          "internalType": "uint256",
          "name": "_pid",
          "type": "uint256"
        },
        {
          "internalType": "uint256",
          "name": "_allocPoint",
          "type": "uint256"
        },
        {
          "internalType": "bool",
          "name": "_withUpdate",
          "type": "bool"
        }
      ],
      "name": "set",
      "outputs": [],
      "stateMutability": "nonpayable",
      "type": "function"
    },
    {
      "inputs": [],
      "name": "startBlock",
      "outputs": [
        {
          "internalType": "uint256",
          "name": "",
          "type": "uint256"
        }
      ],
      "stateMutability": "view",
      "type": "function"
    },
    {
      "inputs": [],
      "name": "totalAllocPoint",
      "outputs": [
        {
          "internalType": "uint256",
          "name": "",
          "type": "uint256"
        }
      ],
      "stateMutability": "view",
      "type": "function"
    },
    {
      "inputs": [
        {
          "internalType": "address",
          "name": "newOwner",
          "type": "address"
        }
      ],
      "name": "transferOwnership",
      "outputs": [],
      "stateMutability": "nonpayable",
      "type": "function"
    },
    {
      "inputs": [],
      "name": "unpause",
      "outputs": [],
      "stateMutability": "nonpayable",
      "type": "function"
    },
    {
      "inputs": [
        {
          "internalType": "uint256",
          "name": "multiplierNumber",
          "type": "uint256"
        }
      ],
      "name": "updateMultiplier",
      "outputs": [],
      "stateMutability": "nonpayable",
      "type": "function"
    },
    {
      "inputs": [
        {
          "internalType": "uint256",
          "name": "_pid",
          "type": "uint256"
        }
      ],
      "name": "updatePool",
      "outputs": [],
      "stateMutability": "nonpayable",
      "type": "function"
    },
    {
      "inputs": [
        {
          "internalType": "address",
          "name": "newImplementation",
          "type": "address"
        }
      ],
      "name": "upgradeTo",
      "outputs": [],
      "stateMutability": "nonpayable",
      "type": "function"
    },
    {
      "inputs": [
        {
          "internalType": "address",
          "name": "newImplementation",
          "type": "address"
        },
        {
          "internalType": "bytes",
          "name": "data",
          "type": "bytes"
        }
      ],
      "name": "upgradeToAndCall",
      "outputs": [],
      "stateMutability": "payable",
      "type": "function"
    },
    {
      "inputs": [
        {
          "internalType": "uint256",
          "name": "_pid",
          "type": "uint256"
        },
        {
          "internalType": "uint256[]",
          "name": "_tokenIds",
          "type": "uint256[]"
        }
      ],
      "name": "withdraw",
      "outputs": [],
      "stateMutability": "nonpayable",
      "type": "function"
    }
  ],
  "bytecode": "0x60a06040523073ffffffffffffffffffffffffffffffffffffffff1660809073ffffffffffffffffffffffffffffffffffffffff1660601b81525034801561004657600080fd5b5060805160601c61495361008160003960008181610a5e01528181610aed01528181610c2601528181610cb5015261102001526149536000f3fe6080604052600436106101cd5760003560e01c80635ffe6146116100f757806376e8424f116100955780638dbb1e3a116100645780638dbb1e3a1461060c578063de3ab78114610649578063e5c9ad2e14610672578063f2fde38b1461069d576101cd565b806376e8424f146105625780638456cb591461059f5780638aa28550146105b65780638da5cb5b146105e1576101cd565b80636450b8a9116100d15780636450b8a9146104ba578063715018a6146104f757806371f39ca11461050e57806376cdb03b14610537576101cd565b80635ffe614614610451578063630b5ba11461047a57806364482f7914610491576101cd565b80633659cfe61161016f57806351eb05a61161013e57806351eb05a6146103a957806352d1902d146103d25780635915d806146103fd5780635c975abb14610426576101cd565b80633659cfe6146103225780633f4ba83a1461034b57806348cd4cb1146103625780634f1ef2861461038d576101cd565b80631526fe27116101ab5780631526fe271461026357806317caf6f1146102a35780631eaaa045146102ce5780631fc7be89146102f7576101cd565b806303b54d52146101d2578063081e3eda146101fb578063150b7a0214610226575b600080fd5b3480156101de57600080fd5b506101f960048036038101906101f491906134f6565b6106c6565b005b34801561020757600080fd5b506102106108b1565b60405161021d9190613f5c565b60405180910390f35b34801561023257600080fd5b5061024d600480360381019061024891906133c2565b6108be565b60405161025a9190613c67565b60405180910390f35b34801561026f57600080fd5b5061028a6004803603810190610285919061356d565b6108d2565b60405161029a9493929190613c9d565b60405180910390f35b3480156102af57600080fd5b506102b8610932565b6040516102c59190613f5c565b60405180910390f35b3480156102da57600080fd5b506102f560048036038101906102f0919061364f565b610939565b005b34801561030357600080fd5b5061030c610a56565b6040516103199190613f5c565b60405180910390f35b34801561032e57600080fd5b5061034960048036038101906103449190613370565b610a5c565b005b34801561035757600080fd5b50610360610c0b565b005b34801561036e57600080fd5b50610377610c1d565b6040516103849190613f5c565b60405180910390f35b6103a760048036038101906103a2919061343d565b610c24565b005b3480156103b557600080fd5b506103d060048036038101906103cb919061356d565b610d61565b005b3480156103de57600080fd5b506103e761101c565b6040516103f49190613c4c565b60405180910390f35b34801561040957600080fd5b50610424600480360381019061041f91906135fb565b6110d5565b005b34801561043257600080fd5b5061043b61162c565b6040516104489190613c31565b60405180910390f35b34801561045d57600080fd5b506104786004803603810190610473919061356d565b611643565b005b34801561048657600080fd5b5061048f611655565b005b34801561049d57600080fd5b506104b860048036038101906104b391906136da565b611688565b005b3480156104c657600080fd5b506104e160048036038101906104dc91906135bf565b61177c565b6040516104ee9190613f5c565b60405180910390f35b34801561050357600080fd5b5061050c611ac5565b005b34801561051a57600080fd5b50610535600480360381019061053091906135fb565b611ad9565b005b34801561054357600080fd5b5061054c611f80565b6040516105599190613ce2565b60405180910390f35b34801561056e57600080fd5b5061058960048036038101906105849190613491565b611fa6565b6040516105969190613f3a565b60405180910390f35b3480156105ab57600080fd5b506105b4612040565b005b3480156105c257600080fd5b506105cb612052565b6040516105d89190613f5c565b60405180910390f35b3480156105ed57600080fd5b506105f6612058565b6040516106039190613b94565b60405180910390f35b34801561061857600080fd5b50610633600480360381019061062e919061369e565b612082565b6040516106409190613f5c565b60405180910390f35b34801561065557600080fd5b50610670600480360381019061066b91906135fb565b6120b3565b005b34801561067e57600080fd5b50610687612506565b6040516106949190613c82565b60405180910390f35b3480156106a957600080fd5b506106c460048036038101906106bf9190613370565b61252c565b005b60008060019054906101000a900460ff161590508080156106f75750600160008054906101000a900460ff1660ff16105b806107245750610706306125b0565b1580156107235750600160008054906101000a900460ff1660ff16145b5b610763576040517f08c379a000000000000000000000000000000000000000000000000000000000815260040161075a90613e7a565b60405180910390fd5b60016000806101000a81548160ff021916908360ff16021790555080156107a0576001600060016101000a81548160ff0219169083151502179055505b6107a86125d3565b8560fb60006101000a81548173ffffffffffffffffffffffffffffffffffffffff021916908373ffffffffffffffffffffffffffffffffffffffff1602179055508460fc8190555083610102819055508260fe60006101000a81548173ffffffffffffffffffffffffffffffffffffffff021916908373ffffffffffffffffffffffffffffffffffffffff160217905550620f424060fd8190555061085060c8836000610939565b80156108a95760008060016101000a81548160ff0219169083151502179055507f7f26b83ff96e1f2b6a682f133852f6798a09c465da95921460cefb384740249860016040516108a09190613cfd565b60405180910390a15b505050505050565b600060ff80549050905090565b600063150b7a0260e01b9050949350505050565b60ff81815481106108e257600080fd5b90600052602060002090600402016000915090508060000160009054906101000a900473ffffffffffffffffffffffffffffffffffffffff16908060010154908060020154908060030154905084565b6101015481565b61094161262c565b80156109505761094f611655565b5b60006101025443116109655761010254610967565b435b905061097f84610101546126aa90919063ffffffff16565b6101018190555060ff60405180608001604052808573ffffffffffffffffffffffffffffffffffffffff1681526020018681526020018381526020016000815250908060018154018082558091505060019003906000526020600020906004020160009091909190915060008201518160000160006101000a81548173ffffffffffffffffffffffffffffffffffffffff021916908373ffffffffffffffffffffffffffffffffffffffff160217905550602082015181600101556040820151816002015560608201518160030155505050505050565b60fc5481565b7f000000000000000000000000000000000000000000000000000000000000000073ffffffffffffffffffffffffffffffffffffffff163073ffffffffffffffffffffffffffffffffffffffff161415610aeb576040517f08c379a0000000000000000000000000000000000000000000000000000000008152600401610ae290613d7a565b60405180910390fd5b7f000000000000000000000000000000000000000000000000000000000000000073ffffffffffffffffffffffffffffffffffffffff16610b2a6126c0565b73ffffffffffffffffffffffffffffffffffffffff1614610b80576040517f08c379a0000000000000000000000000000000000000000000000000000000008152600401610b7790613dba565b60405180910390fd5b610b8981612717565b610c0881600067ffffffffffffffff811115610bce577f4e487b7100000000000000000000000000000000000000000000000000000000600052604160045260246000fd5b6040519080825280601f01601f191660200182016040528015610c005781602001600182028036833780820191505090505b506000612722565b50565b610c1361262c565b610c1b61289f565b565b6101025481565b7f000000000000000000000000000000000000000000000000000000000000000073ffffffffffffffffffffffffffffffffffffffff163073ffffffffffffffffffffffffffffffffffffffff161415610cb3576040517f08c379a0000000000000000000000000000000000000000000000000000000008152600401610caa90613d7a565b60405180910390fd5b7f000000000000000000000000000000000000000000000000000000000000000073ffffffffffffffffffffffffffffffffffffffff16610cf26126c0565b73ffffffffffffffffffffffffffffffffffffffff1614610d48576040517f08c379a0000000000000000000000000000000000000000000000000000000008152600401610d3f90613dba565b60405180910390fd5b610d5182612717565b610d5d82826001612722565b5050565b600060ff8281548110610d9d577f4e487b7100000000000000000000000000000000000000000000000000000000600052603260045260246000fd5b9060005260206000209060040201905080600201544311610dbe5750611019565b60008160000160009054906101000a900473ffffffffffffffffffffffffffffffffffffffff1673ffffffffffffffffffffffffffffffffffffffff166370a08231306040518263ffffffff1660e01b8152600401610e1d9190613b94565b60206040518083038186803b158015610e3557600080fd5b505afa158015610e49573d6000803e3d6000fd5b505050506040513d601f19601f82011682018060405250810190610e6d9190613596565b90506000811415610e88574382600201819055505050611019565b6000610e98836002015443612082565b90506000610edc61010154610ece8660010154610ec060fc548761290290919063ffffffff16565b61290290919063ffffffff16565b61291890919063ffffffff16565b9050600060fb60009054906101000a900473ffffffffffffffffffffffffffffffffffffffff1673ffffffffffffffffffffffffffffffffffffffff166370a0823160fe60009054906101000a900473ffffffffffffffffffffffffffffffffffffffff166040518263ffffffff1660e01b8152600401610f5d9190613b94565b60206040518083038186803b158015610f7557600080fd5b505afa158015610f89573d6000803e3d6000fd5b505050506040513d601f19601f82011682018060405250810190610fad9190613596565b9050808210610fba578091505b611002610fef85610fe16c0c9f2c9cd04674edea400000008661290290919063ffffffff16565b61291890919063ffffffff16565b86600301546126aa90919063ffffffff16565b856003018190555043856002018190555050505050505b50565b60007f000000000000000000000000000000000000000000000000000000000000000073ffffffffffffffffffffffffffffffffffffffff163073ffffffffffffffffffffffffffffffffffffffff16146110ac576040517f08c379a00000000000000000000000000000000000000000000000000000000081526004016110a390613dfa565b60405180910390fd5b7f360894a13ba1a3210667c828492db98dca3e2076cc3735a920a3ca505d382bbc60001b905090565b6110dd61292e565b600060ff8381548110611119577f4e487b7100000000000000000000000000000000000000000000000000000000600052603260045260246000fd5b906000526020600020906004020190506000610100600085815260200190815260200160002060003373ffffffffffffffffffffffffffffffffffffffff1673ffffffffffffffffffffffffffffffffffffffff168152602001908152602001600020905060008351905080826000015410156111cb576040517f08c379a00000000000000000000000000000000000000000000000000000000081526004016111c290613e3a565b60405180910390fd5b6111d485610d61565b600061122683600301546112186c0c9f2c9cd04674edea4000000061120a8860030154886000015461290290919063ffffffff16565b61291890919063ffffffff16565b61297890919063ffffffff16565b9050600081111561123c5761123b338261298e565b5b61125382846000015461297890919063ffffffff16565b83600001819055506112956c0c9f2c9cd04674edea400000006112878660030154866000015461290290919063ffffffff16565b61291890919063ffffffff16565b836003018190555060005b828110156115d4576112fe8682815181106112e4577f4e487b7100000000000000000000000000000000000000000000000000000000600052603260045260246000fd5b602002602001015185600101612a4290919063ffffffff16565b61133d576040517f08c379a000000000000000000000000000000000000000000000000000000000815260040161133490613dda565b60405180910390fd5b8460000160009054906101000a900473ffffffffffffffffffffffffffffffffffffffff1673ffffffffffffffffffffffffffffffffffffffff166342842e0e30338985815181106113b8577f4e487b7100000000000000000000000000000000000000000000000000000000600052603260045260246000fd5b60200260200101516040518463ffffffff1660e01b81526004016113de93929190613baf565b600060405180830381600087803b1580156113f857600080fd5b505af115801561140c573d6000803e3d6000fd5b505050503373ffffffffffffffffffffffffffffffffffffffff168560000160009054906101000a900473ffffffffffffffffffffffffffffffffffffffff1673ffffffffffffffffffffffffffffffffffffffff16636352211e8884815181106114a0577f4e487b7100000000000000000000000000000000000000000000000000000000600052603260045260246000fd5b60200260200101516040518263ffffffff1660e01b81526004016114c49190613f5c565b60206040518083038186803b1580156114dc57600080fd5b505afa1580156114f0573d6000803e3d6000fd5b505050506040513d601f19601f820116820180604052508101906115149190613399565b73ffffffffffffffffffffffffffffffffffffffff161461156a576040517f08c379a000000000000000000000000000000000000000000000000000000000815260040161156190613d9a565b60405180910390fd5b6115c08682815181106115a6577f4e487b7100000000000000000000000000000000000000000000000000000000600052603260045260246000fd5b602002602001015185600101612a5c90919063ffffffff16565b5080806115cc9061433c565b9150506112a0565b50853373ffffffffffffffffffffffffffffffffffffffff167faef68853d1f7f9e4e5fe02896078a87a319c7b257208dac49346c8f03b36c6858760405161161c9190613c0f565b60405180910390a3505050505050565b6000603360009054906101000a900460ff16905090565b61164b61262c565b8060fd8190555050565b600060ff80549050905060005b818110156116845761167381610d61565b8061167d9061433c565b9050611662565b5050565b61169061262c565b801561169f5761169e611655565b5b600060ff84815481106116db577f4e487b7100000000000000000000000000000000000000000000000000000000600052603260045260246000fd5b90600052602060002090600402016001015490508260ff858154811061172a577f4e487b7100000000000000000000000000000000000000000000000000000000600052603260045260246000fd5b9060005260206000209060040201600101819055508281146117765761176e83611760836101015461297890919063ffffffff16565b6126aa90919063ffffffff16565b610101819055505b50505050565b60008060ff84815481106117b9577f4e487b7100000000000000000000000000000000000000000000000000000000600052603260045260246000fd5b906000526020600020906004020190506000610100600086815260200190815260200160002060008573ffffffffffffffffffffffffffffffffffffffff1673ffffffffffffffffffffffffffffffffffffffff168152602001908152602001600020905060008260030154905060008360000160009054906101000a900473ffffffffffffffffffffffffffffffffffffffff1673ffffffffffffffffffffffffffffffffffffffff166370a08231306040518263ffffffff1660e01b81526004016118869190613b94565b60206040518083038186803b15801561189e57600080fd5b505afa1580156118b2573d6000803e3d6000fd5b505050506040513d601f19601f820116820180604052508101906118d69190613596565b90508360020154431180156118ec575060008114155b15611a6d576000611901856002015443612082565b9050600061194561010154611937886001015461192960fc548761290290919063ffffffff16565b61290290919063ffffffff16565b61291890919063ffffffff16565b9050600060fb60009054906101000a900473ffffffffffffffffffffffffffffffffffffffff1673ffffffffffffffffffffffffffffffffffffffff166370a0823160fe60009054906101000a900473ffffffffffffffffffffffffffffffffffffffff166040518263ffffffff1660e01b81526004016119c69190613b94565b60206040518083038186803b1580156119de57600080fd5b505afa1580156119f2573d6000803e3d6000fd5b505050506040513d601f19601f82011682018060405250810190611a169190613596565b9050808210611a23578091505b611a67611a5885611a4a6c0c9f2c9cd04674edea400000008661290290919063ffffffff16565b61291890919063ffffffff16565b866126aa90919063ffffffff16565b94505050505b611ab98360030154611aab6c0c9f2c9cd04674edea40000000611a9d86886000015461290290919063ffffffff16565b61291890919063ffffffff16565b61297890919063ffffffff16565b94505050505092915050565b611acd61262c565b611ad76000612a76565b565b611ae1612b3c565b600060ff8381548110611b1d577f4e487b7100000000000000000000000000000000000000000000000000000000600052603260045260246000fd5b906000526020600020906004020190506000610100600085815260200190815260200160002060003373ffffffffffffffffffffffffffffffffffffffff1673ffffffffffffffffffffffffffffffffffffffff1681526020019081526020016000209050600083519050611b9185610d61565b611ba881836000015461297890919063ffffffff16565b8260000181905550611bea6c0c9f2c9cd04674edea40000000611bdc8560030154856000015461290290919063ffffffff16565b61291890919063ffffffff16565b826003018190555060005b81811015611f2957611c53858281518110611c39577f4e487b7100000000000000000000000000000000000000000000000000000000600052603260045260246000fd5b602002602001015184600101612a4290919063ffffffff16565b611c92576040517f08c379a0000000000000000000000000000000000000000000000000000000008152600401611c8990613dda565b60405180910390fd5b8360000160009054906101000a900473ffffffffffffffffffffffffffffffffffffffff1673ffffffffffffffffffffffffffffffffffffffff166342842e0e3033888581518110611d0d577f4e487b7100000000000000000000000000000000000000000000000000000000600052603260045260246000fd5b60200260200101516040518463ffffffff1660e01b8152600401611d3393929190613baf565b600060405180830381600087803b158015611d4d57600080fd5b505af1158015611d61573d6000803e3d6000fd5b505050503373ffffffffffffffffffffffffffffffffffffffff168460000160009054906101000a900473ffffffffffffffffffffffffffffffffffffffff1673ffffffffffffffffffffffffffffffffffffffff16636352211e878481518110611df5577f4e487b7100000000000000000000000000000000000000000000000000000000600052603260045260246000fd5b60200260200101516040518263ffffffff1660e01b8152600401611e199190613f5c565b60206040518083038186803b158015611e3157600080fd5b505afa158015611e45573d6000803e3d6000fd5b505050506040513d601f19601f82011682018060405250810190611e699190613399565b73ffffffffffffffffffffffffffffffffffffffff1614611ebf576040517f08c379a0000000000000000000000000000000000000000000000000000000008152600401611eb690613d9a565b60405180910390fd5b611f15858281518110611efb577f4e487b7100000000000000000000000000000000000000000000000000000000600052603260045260246000fd5b602002602001015184600101612a5c90919063ffffffff16565b508080611f219061433c565b915050611bf5565b50843373ffffffffffffffffffffffffffffffffffffffff167fbb757047c2b5f3974fe26b7c10f732e7bce710b0952a71082702781e62ae059583604051611f719190613f5c565b60405180910390a35050505050565b60fe60009054906101000a900473ffffffffffffffffffffffffffffffffffffffff1681565b611fae613194565b6000610100600084815260200190815260200160002060008573ffffffffffffffffffffffffffffffffffffffff1673ffffffffffffffffffffffffffffffffffffffff1681526020019081526020016000209050600061201182600101612b85565b905060405180606001604052808360000154815260200183600301548152602001828152509250505092915050565b61204861262c565b612050612ba6565b565b60fd5481565b600060c960009054906101000a900473ffffffffffffffffffffffffffffffffffffffff16905090565b60006120ab60fd5461209d858561297890919063ffffffff16565b61290290919063ffffffff16565b905092915050565b6120bb61292e565b600060ff83815481106120f7577f4e487b7100000000000000000000000000000000000000000000000000000000600052603260045260246000fd5b906000526020600020906004020190506000610100600085815260200190815260200160002060003373ffffffffffffffffffffffffffffffffffffffff1673ffffffffffffffffffffffffffffffffffffffff168152602001908152602001600020905060008351905061216b85610d61565b6000826000015411156121e25760006121ca83600301546121bc6c0c9f2c9cd04674edea400000006121ae8860030154886000015461290290919063ffffffff16565b61291890919063ffffffff16565b61297890919063ffffffff16565b905060008111156121e0576121df338261298e565b5b505b6121f98183600001546126aa90919063ffffffff16565b826000018190555061223b6c0c9f2c9cd04674edea4000000061222d8560030154856000015461290290919063ffffffff16565b61291890919063ffffffff16565b826003018190555060005b818110156124af578360000160009054906101000a900473ffffffffffffffffffffffffffffffffffffffff1673ffffffffffffffffffffffffffffffffffffffff166342842e0e33308885815181106122c9577f4e487b7100000000000000000000000000000000000000000000000000000000600052603260045260246000fd5b60200260200101516040518463ffffffff1660e01b81526004016122ef93929190613baf565b600060405180830381600087803b15801561230957600080fd5b505af115801561231d573d6000803e3d6000fd5b505050503073ffffffffffffffffffffffffffffffffffffffff168460000160009054906101000a900473ffffffffffffffffffffffffffffffffffffffff1673ffffffffffffffffffffffffffffffffffffffff16636352211e8784815181106123b1577f4e487b7100000000000000000000000000000000000000000000000000000000600052603260045260246000fd5b60200260200101516040518263ffffffff1660e01b81526004016123d59190613f5c565b60206040518083038186803b1580156123ed57600080fd5b505afa158015612401573d6000803e3d6000fd5b505050506040513d601f19601f820116820180604052508101906124259190613399565b73ffffffffffffffffffffffffffffffffffffffff161461244557600080fd5b61249b858281518110612481577f4e487b7100000000000000000000000000000000000000000000000000000000600052603260045260246000fd5b602002602001015184600101612c0990919063ffffffff16565b5080806124a79061433c565b915050612246565b50843373ffffffffffffffffffffffffffffffffffffffff167fe7425730072f5a6ec278ae24c998f6a79299c875cbd84ad35585563a0cb3c666866040516124f79190613c0f565b60405180910390a35050505050565b60fb60009054906101000a900473ffffffffffffffffffffffffffffffffffffffff1681565b61253461262c565b600073ffffffffffffffffffffffffffffffffffffffff168173ffffffffffffffffffffffffffffffffffffffff1614156125a4576040517f08c379a000000000000000000000000000000000000000000000000000000000815260040161259b90613d5a565b60405180910390fd5b6125ad81612a76565b50565b6000808273ffffffffffffffffffffffffffffffffffffffff163b119050919050565b600060019054906101000a900460ff16612622576040517f08c379a000000000000000000000000000000000000000000000000000000000815260040161261990613f1a565b60405180910390fd5b61262a612c23565b565b612634612c84565b73ffffffffffffffffffffffffffffffffffffffff16612652612058565b73ffffffffffffffffffffffffffffffffffffffff16146126a8576040517f08c379a000000000000000000000000000000000000000000000000000000000815260040161269f90613eda565b60405180910390fd5b565b600081836126b89190614075565b905092915050565b60006126ee7f360894a13ba1a3210667c828492db98dca3e2076cc3735a920a3ca505d382bbc60001b612c8c565b60000160009054906101000a900473ffffffffffffffffffffffffffffffffffffffff16905090565b61271f61262c565b50565b61274e7f4910fdfa16fed3260ed0e7147f7cc6da11a60208b5b9406d12a635614ffd914360001b612c96565b60000160009054906101000a900460ff16156127725761276d83612ca0565b61289a565b8273ffffffffffffffffffffffffffffffffffffffff166352d1902d6040518163ffffffff1660e01b815260040160206040518083038186803b1580156127b857600080fd5b505afa9250505080156127e957506040513d601f19601f820116820180604052508101906127e691906134cd565b60015b612828576040517f08c379a000000000000000000000000000000000000000000000000000000000815260040161281f90613e9a565b60405180910390fd5b7f360894a13ba1a3210667c828492db98dca3e2076cc3735a920a3ca505d382bbc60001b811461288d576040517f08c379a000000000000000000000000000000000000000000000000000000000815260040161288490613e5a565b60405180910390fd5b50612899838383612d59565b5b505050565b6128a7612b3c565b6000603360006101000a81548160ff0219169083151502179055507f5db9ee0a495bf2e6ff9c91a7834c1ba4fdd244a5e8aa4e537bd38aeae4b073aa6128eb612c84565b6040516128f89190613b94565b60405180910390a1565b6000818361291091906140fc565b905092915050565b6000818361292691906140cb565b905092915050565b61293661162c565b15612976576040517f08c379a000000000000000000000000000000000000000000000000000000000815260040161296d90613e1a565b60405180910390fd5b565b600081836129869190614156565b905092915050565b60fe60009054906101000a900473ffffffffffffffffffffffffffffffffffffffff1673ffffffffffffffffffffffffffffffffffffffff1663e6d41a8283836040518363ffffffff1660e01b81526004016129eb929190613be6565b602060405180830381600087803b158015612a0557600080fd5b505af1158015612a19573d6000803e3d6000fd5b505050506040513d601f19601f82011682018060405250810190612a3d9190613596565b505050565b6000612a54836000018360001b612d85565b905092915050565b6000612a6e836000018360001b612da8565b905092915050565b600060c960009054906101000a900473ffffffffffffffffffffffffffffffffffffffff1690508160c960006101000a81548173ffffffffffffffffffffffffffffffffffffffff021916908373ffffffffffffffffffffffffffffffffffffffff1602179055508173ffffffffffffffffffffffffffffffffffffffff168173ffffffffffffffffffffffffffffffffffffffff167f8be0079c531659141344cd1fd0a4f28419497f9722a3daafe3b4186f6b6457e060405160405180910390a35050565b612b4461162c565b612b83576040517f08c379a0000000000000000000000000000000000000000000000000000000008152600401612b7a90613d3a565b60405180910390fd5b565b60606000612b9583600001612f2e565b905060608190508092505050919050565b612bae61292e565b6001603360006101000a81548160ff0219169083151502179055507f62e78cea01bee320cd4e420270b5ea74000d11b0c9f74754ebdbfc544b05a258612bf2612c84565b604051612bff9190613b94565b60405180910390a1565b6000612c1b836000018360001b612f8a565b905092915050565b600060019054906101000a900460ff16612c72576040517f08c379a0000000000000000000000000000000000000000000000000000000008152600401612c6990613f1a565b60405180910390fd5b612c82612c7d612c84565b612a76565b565b600033905090565b6000819050919050565b6000819050919050565b612ca9816125b0565b612ce8576040517f08c379a0000000000000000000000000000000000000000000000000000000008152600401612cdf90613eba565b60405180910390fd5b80612d157f360894a13ba1a3210667c828492db98dca3e2076cc3735a920a3ca505d382bbc60001b612c8c565b60000160006101000a81548173ffffffffffffffffffffffffffffffffffffffff021916908373ffffffffffffffffffffffffffffffffffffffff16021790555050565b612d6283612ffa565b600082511180612d6f5750805b15612d8057612d7e8383613049565b505b505050565b600080836001016000848152602001908152602001600020541415905092915050565b60008083600101600084815260200190815260200160002054905060008114612f22576000600182612dda9190614156565b9050600060018660000180549050612df29190614156565b9050818114612ead576000866000018281548110612e39577f4e487b7100000000000000000000000000000000000000000000000000000000600052603260045260246000fd5b9060005260206000200154905080876000018481548110612e83577f4e487b7100000000000000000000000000000000000000000000000000000000600052603260045260246000fd5b90600052602060002001819055508387600101600083815260200190815260200160002081905550505b85600001805480612ee7577f4e487b7100000000000000000000000000000000000000000000000000000000600052603160045260246000fd5b600190038181906000526020600020016000905590558560010160008681526020019081526020016000206000905560019350505050612f28565b60009150505b92915050565b606081600001805480602002602001604051908101604052809291908181526020018280548015612f7e57602002820191906000526020600020905b815481526020019060010190808311612f6a575b50505050509050919050565b6000612f968383612d85565b612fef578260000182908060018154018082558091505060019003906000526020600020016000909190919091505582600001805490508360010160008481526020019081526020016000208190555060019050612ff4565b600090505b92915050565b61300381612ca0565b8073ffffffffffffffffffffffffffffffffffffffff167fbc7cd75a20ee27fd9adebab32041f755214dbc6bffa90cc0225b39da2e5c2d3b60405160405180910390a250565b6060613054836125b0565b613093576040517f08c379a000000000000000000000000000000000000000000000000000000000815260040161308a90613efa565b60405180910390fd5b6000808473ffffffffffffffffffffffffffffffffffffffff16846040516130bb9190613b7d565b600060405180830381855af49150503d80600081146130f6576040519150601f19603f3d011682016040523d82523d6000602084013e6130fb565b606091505b509150915061312382826040518060600160405280602781526020016148f76027913961312d565b9250505092915050565b6060831561313d5782905061318d565b6000835111156131505782518084602001fd5b816040517f08c379a00000000000000000000000000000000000000000000000000000000081526004016131849190613d18565b60405180910390fd5b9392505050565b60405180606001604052806000815260200160008152602001606081525090565b60006131c86131c384613f9c565b613f77565b905080838252602082019050828560208602820111156131e757600080fd5b60005b8581101561321757816131fd8882613346565b8452602084019350602083019250506001810190506131ea565b5050509392505050565b600061323461322f84613fc8565b613f77565b90508281526020810184848401111561324c57600080fd5b6132578482856142c9565b509392505050565b60008135905061326e81614855565b92915050565b60008151905061328381614855565b92915050565b600082601f83011261329a57600080fd5b81356132aa8482602086016131b5565b91505092915050565b6000813590506132c28161486c565b92915050565b6000815190506132d781614883565b92915050565b600082601f8301126132ee57600080fd5b81356132fe848260208601613221565b91505092915050565b6000813590506133168161489a565b92915050565b60008135905061332b816148b1565b92915050565b600081359050613340816148c8565b92915050565b600081359050613355816148df565b92915050565b60008151905061336a816148df565b92915050565b60006020828403121561338257600080fd5b60006133908482850161325f565b91505092915050565b6000602082840312156133ab57600080fd5b60006133b984828501613274565b91505092915050565b600080600080608085870312156133d857600080fd5b60006133e68782880161325f565b94505060206133f78782880161325f565b935050604061340887828801613346565b925050606085013567ffffffffffffffff81111561342557600080fd5b613431878288016132dd565b91505092959194509250565b6000806040838503121561345057600080fd5b600061345e8582860161325f565b925050602083013567ffffffffffffffff81111561347b57600080fd5b613487858286016132dd565b9150509250929050565b600080604083850312156134a457600080fd5b60006134b28582860161325f565b92505060206134c385828601613346565b9150509250929050565b6000602082840312156134df57600080fd5b60006134ed848285016132c8565b91505092915050565b600080600080600060a0868803121561350e57600080fd5b600061351c88828901613307565b955050602061352d88828901613346565b945050604061353e88828901613346565b935050606061354f88828901613331565b92505060806135608882890161331c565b9150509295509295909350565b60006020828403121561357f57600080fd5b600061358d84828501613346565b91505092915050565b6000602082840312156135a857600080fd5b60006135b68482850161335b565b91505092915050565b600080604083850312156135d257600080fd5b60006135e085828601613346565b92505060206135f18582860161325f565b9150509250929050565b6000806040838503121561360e57600080fd5b600061361c85828601613346565b925050602083013567ffffffffffffffff81111561363957600080fd5b61364585828601613289565b9150509250929050565b60008060006060848603121561366457600080fd5b600061367286828701613346565b93505060206136838682870161331c565b9250506040613694868287016132b3565b9150509250925092565b600080604083850312156136b157600080fd5b60006136bf85828601613346565b92505060206136d085828601613346565b9150509250929050565b6000806000606084860312156136ef57600080fd5b60006136fd86828701613346565b935050602061370e86828701613346565b925050604061371f868287016132b3565b9150509250925092565b60006137358383613b5f565b60208301905092915050565b61374a8161418a565b82525050565b600061375b82614009565b6137658185614037565b935061377083613ff9565b8060005b838110156137a15781516137888882613729565b97506137938361402a565b925050600181019050613774565b5085935050505092915050565b60006137b982614009565b6137c38185614048565b93506137ce83613ff9565b8060005b838110156137ff5781516137e68882613729565b97506137f18361402a565b9250506001810190506137d2565b5085935050505092915050565b6138158161419c565b82525050565b613824816141a8565b82525050565b613833816141b2565b82525050565b600061384482614014565b61384e8185614059565b935061385e8185602086016142d8565b80840191505092915050565b6138738161424b565b82525050565b6138828161426f565b82525050565b61389181614293565b82525050565b6138a0816142b7565b82525050565b60006138b18261401f565b6138bb8185614064565b93506138cb8185602086016142d8565b6138d481614412565b840191505092915050565b60006138ec601483614064565b91506138f782614423565b602082019050919050565b600061390f602683614064565b915061391a8261444c565b604082019050919050565b6000613932602c83614064565b915061393d8261449b565b604082019050919050565b6000613955602b83614064565b9150613960826144ea565b604082019050919050565b6000613978602c83614064565b915061398382614539565b604082019050919050565b600061399b601e83614064565b91506139a682614588565b602082019050919050565b60006139be603883614064565b91506139c9826145b1565b604082019050919050565b60006139e1601083614064565b91506139ec82614600565b602082019050919050565b6000613a04602083614064565b9150613a0f82614629565b602082019050919050565b6000613a27602983614064565b9150613a3282614652565b604082019050919050565b6000613a4a602e83614064565b9150613a55826146a1565b604082019050919050565b6000613a6d602e83614064565b9150613a78826146f0565b604082019050919050565b6000613a90602d83614064565b9150613a9b8261473f565b604082019050919050565b6000613ab3602083614064565b9150613abe8261478e565b602082019050919050565b6000613ad6602683614064565b9150613ae1826147b7565b604082019050919050565b6000613af9602b83614064565b9150613b0482614806565b604082019050919050565b6000606083016000830151613b276000860182613b5f565b506020830151613b3a6020860182613b5f565b5060408301518482036040860152613b528282613750565b9150508091505092915050565b613b6881614234565b82525050565b613b7781614234565b82525050565b6000613b898284613839565b915081905092915050565b6000602082019050613ba96000830184613741565b92915050565b6000606082019050613bc46000830186613741565b613bd16020830185613741565b613bde6040830184613b6e565b949350505050565b6000604082019050613bfb6000830185613741565b613c086020830184613b6e565b9392505050565b60006020820190508181036000830152613c2981846137ae565b905092915050565b6000602082019050613c46600083018461380c565b92915050565b6000602082019050613c61600083018461381b565b92915050565b6000602082019050613c7c600083018461382a565b92915050565b6000602082019050613c97600083018461386a565b92915050565b6000608082019050613cb26000830187613879565b613cbf6020830186613b6e565b613ccc6040830185613b6e565b613cd96060830184613b6e565b95945050505050565b6000602082019050613cf76000830184613888565b92915050565b6000602082019050613d126000830184613897565b92915050565b60006020820190508181036000830152613d3281846138a6565b905092915050565b60006020820190508181036000830152613d53816138df565b9050919050565b60006020820190508181036000830152613d7381613902565b9050919050565b60006020820190508181036000830152613d9381613925565b9050919050565b60006020820190508181036000830152613db381613948565b9050919050565b60006020820190508181036000830152613dd38161396b565b9050919050565b60006020820190508181036000830152613df38161398e565b9050919050565b60006020820190508181036000830152613e13816139b1565b9050919050565b60006020820190508181036000830152613e33816139d4565b9050919050565b60006020820190508181036000830152613e53816139f7565b9050919050565b60006020820190508181036000830152613e7381613a1a565b9050919050565b60006020820190508181036000830152613e9381613a3d565b9050919050565b60006020820190508181036000830152613eb381613a60565b9050919050565b60006020820190508181036000830152613ed381613a83565b9050919050565b60006020820190508181036000830152613ef381613aa6565b9050919050565b60006020820190508181036000830152613f1381613ac9565b9050919050565b60006020820190508181036000830152613f3381613aec565b9050919050565b60006020820190508181036000830152613f548184613b0f565b905092915050565b6000602082019050613f716000830184613b6e565b92915050565b6000613f81613f92565b9050613f8d828261430b565b919050565b6000604051905090565b600067ffffffffffffffff821115613fb757613fb66143e3565b5b602082029050602081019050919050565b600067ffffffffffffffff821115613fe357613fe26143e3565b5b613fec82614412565b9050602081019050919050565b6000819050602082019050919050565b600081519050919050565b600081519050919050565b600081519050919050565b6000602082019050919050565b600082825260208201905092915050565b600082825260208201905092915050565b600081905092915050565b600082825260208201905092915050565b600061408082614234565b915061408b83614234565b9250827fffffffffffffffffffffffffffffffffffffffffffffffffffffffffffffffff038211156140c0576140bf614385565b5b828201905092915050565b60006140d682614234565b91506140e183614234565b9250826140f1576140f06143b4565b5b828204905092915050565b600061410782614234565b915061411283614234565b9250817fffffffffffffffffffffffffffffffffffffffffffffffffffffffffffffffff048311821515161561414b5761414a614385565b5b828202905092915050565b600061416182614234565b915061416c83614234565b92508282101561417f5761417e614385565b5b828203905092915050565b600061419582614214565b9050919050565b60008115159050919050565b6000819050919050565b60007fffffffff0000000000000000000000000000000000000000000000000000000082169050919050565b60006141e98261418a565b9050919050565b60006141fb8261418a565b9050919050565b600061420d8261418a565b9050919050565b600073ffffffffffffffffffffffffffffffffffffffff82169050919050565b6000819050919050565b600060ff82169050919050565b60006142568261425d565b9050919050565b600061426882614214565b9050919050565b600061427a82614281565b9050919050565b600061428c82614214565b9050919050565b600061429e826142a5565b9050919050565b60006142b082614214565b9050919050565b60006142c28261423e565b9050919050565b82818337600083830152505050565b60005b838110156142f65780820151818401526020810190506142db565b83811115614305576000848401525b50505050565b61431482614412565b810181811067ffffffffffffffff82111715614333576143326143e3565b5b80604052505050565b600061434782614234565b91507fffffffffffffffffffffffffffffffffffffffffffffffffffffffffffffffff82141561437a57614379614385565b5b600182019050919050565b7f4e487b7100000000000000000000000000000000000000000000000000000000600052601160045260246000fd5b7f4e487b7100000000000000000000000000000000000000000000000000000000600052601260045260246000fd5b7f4e487b7100000000000000000000000000000000000000000000000000000000600052604160045260246000fd5b6000601f19601f8301169050919050565b7f5061757361626c653a206e6f7420706175736564000000000000000000000000600082015250565b7f4f776e61626c653a206e6577206f776e657220697320746865207a65726f206160008201527f6464726573730000000000000000000000000000000000000000000000000000602082015250565b7f46756e6374696f6e206d7573742062652063616c6c6564207468726f7567682060008201527f64656c656761746563616c6c0000000000000000000000000000000000000000602082015250565b7f5072656469637476657273653a204e6674206e6f74207472616e73666572726560008201527f6420636f72726563746c79000000000000000000000000000000000000000000602082015250565b7f46756e6374696f6e206d7573742062652063616c6c6564207468726f7567682060008201527f6163746976652070726f78790000000000000000000000000000000000000000602082015250565b7f5072656469637476657273653a204e6f74206f776e6572206f66206e66740000600082015250565b7f555550535570677261646561626c653a206d757374206e6f742062652063616c60008201527f6c6564207468726f7567682064656c656761746563616c6c0000000000000000602082015250565b7f5061757361626c653a2070617573656400000000000000000000000000000000600082015250565b7f5072656469637476657273653a2057697468647261773a206e6f7420676f6f64600082015250565b7f45524331393637557067726164653a20756e737570706f727465642070726f7860008201527f6961626c65555549440000000000000000000000000000000000000000000000602082015250565b7f496e697469616c697a61626c653a20636f6e747261637420697320616c72656160008201527f647920696e697469616c697a6564000000000000000000000000000000000000602082015250565b7f45524331393637557067726164653a206e657720696d706c656d656e7461746960008201527f6f6e206973206e6f742055555053000000000000000000000000000000000000602082015250565b7f455243313936373a206e657720696d706c656d656e746174696f6e206973206e60008201527f6f74206120636f6e747261637400000000000000000000000000000000000000602082015250565b7f4f776e61626c653a2063616c6c6572206973206e6f7420746865206f776e6572600082015250565b7f416464726573733a2064656c65676174652063616c6c20746f206e6f6e2d636f60008201527f6e74726163740000000000000000000000000000000000000000000000000000602082015250565b7f496e697469616c697a61626c653a20636f6e7472616374206973206e6f74206960008201527f6e697469616c697a696e67000000000000000000000000000000000000000000602082015250565b61485e8161418a565b811461486957600080fd5b50565b6148758161419c565b811461488057600080fd5b50565b61488c816141a8565b811461489757600080fd5b50565b6148a3816141de565b81146148ae57600080fd5b50565b6148ba816141f0565b81146148c557600080fd5b50565b6148d181614202565b81146148dc57600080fd5b50565b6148e881614234565b81146148f357600080fd5b5056fe416464726573733a206c6f772d6c6576656c2064656c65676174652063616c6c206661696c6564a2646970667358221220904a00094fa0b2de6b7c58b0381616c6b1a329d16bd3bc50b25f510cd709e4ec64736f6c63430008020033",
  "linkReferences": {},
  "deployedLinkReferences": {}
}