{
  "_format": "hh-sol-artifact-1",
  "contractName": "PredictverseBank",
  "sourceName": "contracts/PredictverseBank.sol",
  "abi": [
    {
      "inputs": [
        {
          "internalType": "contract IBEP20",
          "name": "_pred",
          "type": "address"
        }
      ],
      "stateMutability": "nonpayable",
      "type": "constructor"
    },
    {
      "anonymous": false,
      "inputs": [
        {
          "indexed": true,
          "internalType": "address",
          "name": "previousOwner",
          "type": "address"
        },
        {
          "indexed": true,
          "internalType": "address",
          "name": "newOwner",
          "type": "address"
        }
      ],
      "name": "OwnershipTransferred",
      "type": "event"
    },
    {
      "inputs": [],
      "name": "MasterPred",
      "outputs": [
        {
          "internalType": "address",
          "name": "",
          "type": "address"
        }
      ],
      "stateMutability": "view",
      "type": "function"
    },
    {
      "inputs": [],
      "name": "owner",
      "outputs": [
        {
          "internalType": "address",
          "name": "",
          "type": "address"
        }
      ],
      "stateMutability": "view",
      "type": "function"
    },
    {
      "inputs": [],
      "name": "pred",
      "outputs": [
        {
          "internalType": "contract IBEP20",
          "name": "",
          "type": "address"
        }
      ],
      "stateMutability": "view",
      "type": "function"
    },
    {
      "inputs": [],
      "name": "renounceOwnership",
      "outputs": [],
      "stateMutability": "nonpayable",
      "type": "function"
    },
    {
      "inputs": [
        {
          "internalType": "address",
          "name": "_to",
          "type": "address"
        },
        {
          "internalType": "uint256",
          "name": "_amount",
          "type": "uint256"
        }
      ],
      "name": "safePredTransfer",
      "outputs": [
        {
          "internalType": "uint256",
          "name": "",
          "type": "uint256"
        }
      ],
      "stateMutability": "nonpayable",
      "type": "function"
    },
    {
      "inputs": [
        {
          "internalType": "address",
          "name": "_MasterPred",
          "type": "address"
        }
      ],
      "name": "setMasterPred",
      "outputs": [],
      "stateMutability": "nonpayable",
      "type": "function"
    },
    {
      "inputs": [
        {
          "internalType": "address",
          "name": "newOwner",
          "type": "address"
        }
      ],
      "name": "transferOwnership",
      "outputs": [],
      "stateMutability": "nonpayable",
      "type": "function"
    }
  ],
  "bytecode": "0x60806040523480156200001157600080fd5b506040516200121a3803806200121a833981810160405281019062000037919062000182565b620000576200004b6200009f60201b60201c565b620000a760201b60201c565b80600160006101000a81548173ffffffffffffffffffffffffffffffffffffffff021916908373ffffffffffffffffffffffffffffffffffffffff1602179055505062000210565b600033905090565b60008060009054906101000a900473ffffffffffffffffffffffffffffffffffffffff169050816000806101000a81548173ffffffffffffffffffffffffffffffffffffffff021916908373ffffffffffffffffffffffffffffffffffffffff1602179055508173ffffffffffffffffffffffffffffffffffffffff168173ffffffffffffffffffffffffffffffffffffffff167f8be0079c531659141344cd1fd0a4f28419497f9722a3daafe3b4186f6b6457e060405160405180910390a35050565b6000815190506200017c81620001f6565b92915050565b6000602082840312156200019557600080fd5b6000620001a5848285016200016b565b91505092915050565b6000620001bb82620001d6565b9050919050565b6000620001cf82620001ae565b9050919050565b600073ffffffffffffffffffffffffffffffffffffffff82169050919050565b6200020181620001c2565b81146200020d57600080fd5b50565b610ffa80620002206000396000f3fe608060405234801561001057600080fd5b506004361061007d5760003560e01c8063c86be8781161005b578063c86be878146100c6578063e5c9ad2e146100e4578063e6d41a8214610102578063f2fde38b146101325761007d565b8063715018a6146100825780638da5cb5b1461008c5780639a88ee9f146100aa575b600080fd5b61008a61014e565b005b610094610162565b6040516100a19190610bb3565b60405180910390f35b6100c460048036038101906100bf919061097c565b61018b565b005b6100ce6101d7565b6040516100db9190610bb3565b60405180910390f35b6100ec6101fd565b6040516100f99190610bf7565b60405180910390f35b61011c600480360381019061011791906109a5565b610223565b6040516101299190610cf4565b60405180910390f35b61014c6004803603810190610147919061097c565b610457565b005b6101566104db565b6101606000610559565b565b60008060009054906101000a900473ffffffffffffffffffffffffffffffffffffffff16905090565b6101936104db565b80600260006101000a81548173ffffffffffffffffffffffffffffffffffffffff021916908373ffffffffffffffffffffffffffffffffffffffff16021790555050565b600260009054906101000a900473ffffffffffffffffffffffffffffffffffffffff1681565b600160009054906101000a900473ffffffffffffffffffffffffffffffffffffffff1681565b6000600260009054906101000a900473ffffffffffffffffffffffffffffffffffffffff1673ffffffffffffffffffffffffffffffffffffffff163373ffffffffffffffffffffffffffffffffffffffff1614806102b35750610284610162565b73ffffffffffffffffffffffffffffffffffffffff163373ffffffffffffffffffffffffffffffffffffffff16145b6102f2576040517f08c379a00000000000000000000000000000000000000000000000000000000081526004016102e990610c54565b60405180910390fd5b6000600160009054906101000a900473ffffffffffffffffffffffffffffffffffffffff1673ffffffffffffffffffffffffffffffffffffffff166370a08231306040518263ffffffff1660e01b815260040161034f9190610bb3565b60206040518083038186803b15801561036757600080fd5b505afa15801561037b573d6000803e3d6000fd5b505050506040513d601f19601f8201168201806040525081019061039f9190610a0a565b9050808311156103ff576103f68482600160009054906101000a900473ffffffffffffffffffffffffffffffffffffffff1673ffffffffffffffffffffffffffffffffffffffff1661061d9092919063ffffffff16565b80915050610451565b61044c8484600160009054906101000a900473ffffffffffffffffffffffffffffffffffffffff1673ffffffffffffffffffffffffffffffffffffffff1661061d9092919063ffffffff16565b829150505b92915050565b61045f6104db565b600073ffffffffffffffffffffffffffffffffffffffff168173ffffffffffffffffffffffffffffffffffffffff1614156104cf576040517f08c379a00000000000000000000000000000000000000000000000000000000081526004016104c690610c34565b60405180910390fd5b6104d881610559565b50565b6104e36106a3565b73ffffffffffffffffffffffffffffffffffffffff16610501610162565b73ffffffffffffffffffffffffffffffffffffffff1614610557576040517f08c379a000000000000000000000000000000000000000000000000000000000815260040161054e90610c94565b60405180910390fd5b565b60008060009054906101000a900473ffffffffffffffffffffffffffffffffffffffff169050816000806101000a81548173ffffffffffffffffffffffffffffffffffffffff021916908373ffffffffffffffffffffffffffffffffffffffff1602179055508173ffffffffffffffffffffffffffffffffffffffff168173ffffffffffffffffffffffffffffffffffffffff167f8be0079c531659141344cd1fd0a4f28419497f9722a3daafe3b4186f6b6457e060405160405180910390a35050565b61069e8363a9059cbb60e01b848460405160240161063c929190610bce565b604051602081830303815290604052907bffffffffffffffffffffffffffffffffffffffffffffffffffffffff19166020820180517bffffffffffffffffffffffffffffffffffffffffffffffffffffffff83818316178352505050506106ab565b505050565b600033905090565b600061070d826040518060400160405280602081526020017f5361666545524332303a206c6f772d6c6576656c2063616c6c206661696c65648152508573ffffffffffffffffffffffffffffffffffffffff166107729092919063ffffffff16565b905060008151111561076d578080602001905181019061072d91906109e1565b61076c576040517f08c379a000000000000000000000000000000000000000000000000000000000815260040161076390610cd4565b60405180910390fd5b5b505050565b6060610781848460008561078a565b90509392505050565b6060824710156107cf576040517f08c379a00000000000000000000000000000000000000000000000000000000081526004016107c690610c74565b60405180910390fd5b6107d88561089e565b610817576040517f08c379a000000000000000000000000000000000000000000000000000000000815260040161080e90610cb4565b60405180910390fd5b6000808673ffffffffffffffffffffffffffffffffffffffff1685876040516108409190610b9c565b60006040518083038185875af1925050503d806000811461087d576040519150601f19603f3d011682016040523d82523d6000602084013e610882565b606091505b50915091506108928282866108c1565b92505050949350505050565b6000808273ffffffffffffffffffffffffffffffffffffffff163b119050919050565b606083156108d157829050610921565b6000835111156108e45782518084602001fd5b816040517f08c379a00000000000000000000000000000000000000000000000000000000081526004016109189190610c12565b60405180910390fd5b9392505050565b60008135905061093781610f7f565b92915050565b60008151905061094c81610f96565b92915050565b60008135905061096181610fad565b92915050565b60008151905061097681610fad565b92915050565b60006020828403121561098e57600080fd5b600061099c84828501610928565b91505092915050565b600080604083850312156109b857600080fd5b60006109c685828601610928565b92505060206109d785828601610952565b9150509250929050565b6000602082840312156109f357600080fd5b6000610a018482850161093d565b91505092915050565b600060208284031215610a1c57600080fd5b6000610a2a84828501610967565b91505092915050565b610a3c81610d41565b82525050565b6000610a4d82610d0f565b610a578185610d25565b9350610a67818560208601610dad565b80840191505092915050565b610a7c81610d89565b82525050565b6000610a8d82610d1a565b610a978185610d30565b9350610aa7818560208601610dad565b610ab081610de0565b840191505092915050565b6000610ac8602683610d30565b9150610ad382610df1565b604082019050919050565b6000610aeb602e83610d30565b9150610af682610e40565b604082019050919050565b6000610b0e602683610d30565b9150610b1982610e8f565b604082019050919050565b6000610b31602083610d30565b9150610b3c82610ede565b602082019050919050565b6000610b54601d83610d30565b9150610b5f82610f07565b602082019050919050565b6000610b77602a83610d30565b9150610b8282610f30565b604082019050919050565b610b9681610d7f565b82525050565b6000610ba88284610a42565b915081905092915050565b6000602082019050610bc86000830184610a33565b92915050565b6000604082019050610be36000830185610a33565b610bf06020830184610b8d565b9392505050565b6000602082019050610c0c6000830184610a73565b92915050565b60006020820190508181036000830152610c2c8184610a82565b905092915050565b60006020820190508181036000830152610c4d81610abb565b9050919050565b60006020820190508181036000830152610c6d81610ade565b9050919050565b60006020820190508181036000830152610c8d81610b01565b9050919050565b60006020820190508181036000830152610cad81610b24565b9050919050565b60006020820190508181036000830152610ccd81610b47565b9050919050565b60006020820190508181036000830152610ced81610b6a565b9050919050565b6000602082019050610d096000830184610b8d565b92915050565b600081519050919050565b600081519050919050565b600081905092915050565b600082825260208201905092915050565b6000610d4c82610d5f565b9050919050565b60008115159050919050565b600073ffffffffffffffffffffffffffffffffffffffff82169050919050565b6000819050919050565b6000610d9482610d9b565b9050919050565b6000610da682610d5f565b9050919050565b60005b83811015610dcb578082015181840152602081019050610db0565b83811115610dda576000848401525b50505050565b6000601f19601f8301169050919050565b7f4f776e61626c653a206e6577206f776e657220697320746865207a65726f206160008201527f6464726573730000000000000000000000000000000000000000000000000000602082015250565b7f57616c6c65743a204f6e6c79204d61737465725072656420616e64204f776e6560008201527f722063616e207472616e73666572000000000000000000000000000000000000602082015250565b7f416464726573733a20696e73756666696369656e742062616c616e636520666f60008201527f722063616c6c0000000000000000000000000000000000000000000000000000602082015250565b7f4f776e61626c653a2063616c6c6572206973206e6f7420746865206f776e6572600082015250565b7f416464726573733a2063616c6c20746f206e6f6e2d636f6e7472616374000000600082015250565b7f5361666545524332303a204552433230206f7065726174696f6e20646964206e60008201527f6f74207375636365656400000000000000000000000000000000000000000000602082015250565b610f8881610d41565b8114610f9357600080fd5b50565b610f9f81610d53565b8114610faa57600080fd5b50565b610fb681610d7f565b8114610fc157600080fd5b5056fea26469706673582212209f6d3e784c78f348732b4dad95d67a5b2d67d463d669071feb53e18d8b5b032064736f6c63430008020033",
  "linkReferences": {},
  "deployedLinkReferences": {}
}