{
  "_format": "hh-sol-artifact-1",
  "contractName": "MasterPredWallet",
  "sourceName": "contracts/MasterPredWallet.sol",
  "abi": [
    {
      "inputs": [
        {
          "internalType": "contract IBEP20",
          "name": "_pred",
          "type": "address"
        }
      ],
      "stateMutability": "nonpayable",
      "type": "constructor"
    },
    {
      "anonymous": false,
      "inputs": [
        {
          "indexed": true,
          "internalType": "address",
          "name": "previousOwner",
          "type": "address"
        },
        {
          "indexed": true,
          "internalType": "address",
          "name": "newOwner",
          "type": "address"
        }
      ],
      "name": "OwnershipTransferred",
      "type": "event"
    },
    {
      "inputs": [],
      "name": "MasterPred",
      "outputs": [
        {
          "internalType": "address",
          "name": "",
          "type": "address"
        }
      ],
      "stateMutability": "view",
      "type": "function"
    },
    {
      "inputs": [],
      "name": "owner",
      "outputs": [
        {
          "internalType": "address",
          "name": "",
          "type": "address"
        }
      ],
      "stateMutability": "view",
      "type": "function"
    },
    {
      "inputs": [],
      "name": "pred",
      "outputs": [
        {
          "internalType": "contract IBEP20",
          "name": "",
          "type": "address"
        }
      ],
      "stateMutability": "view",
      "type": "function"
    },
    {
      "inputs": [],
      "name": "renounceOwnership",
      "outputs": [],
      "stateMutability": "nonpayable",
      "type": "function"
    },
    {
      "inputs": [
        {
          "internalType": "address",
          "name": "_to",
          "type": "address"
        },
        {
          "internalType": "uint256",
          "name": "_amount",
          "type": "uint256"
        }
      ],
      "name": "safePredTransfer",
      "outputs": [
        {
          "internalType": "uint256",
          "name": "",
          "type": "uint256"
        }
      ],
      "stateMutability": "nonpayable",
      "type": "function"
    },
    {
      "inputs": [
        {
          "internalType": "address",
          "name": "_MasterPred",
          "type": "address"
        }
      ],
      "name": "setMasterPred",
      "outputs": [],
      "stateMutability": "nonpayable",
      "type": "function"
    },
    {
      "inputs": [
        {
          "internalType": "address",
          "name": "newOwner",
          "type": "address"
        }
      ],
      "name": "transferOwnership",
      "outputs": [],
      "stateMutability": "nonpayable",
      "type": "function"
    }
  ],
  "bytecode": "0x60806040523480156200001157600080fd5b50604051620012e8380380620012e8833981810160405281019062000037919062000182565b620000576200004b6200009f60201b60201c565b620000a760201b60201c565b80600160006101000a81548173ffffffffffffffffffffffffffffffffffffffff021916908373ffffffffffffffffffffffffffffffffffffffff1602179055505062000210565b600033905090565b60008060009054906101000a900473ffffffffffffffffffffffffffffffffffffffff169050816000806101000a81548173ffffffffffffffffffffffffffffffffffffffff021916908373ffffffffffffffffffffffffffffffffffffffff1602179055508173ffffffffffffffffffffffffffffffffffffffff168173ffffffffffffffffffffffffffffffffffffffff167f8be0079c531659141344cd1fd0a4f28419497f9722a3daafe3b4186f6b6457e060405160405180910390a35050565b6000815190506200017c81620001f6565b92915050565b6000602082840312156200019557600080fd5b6000620001a5848285016200016b565b91505092915050565b6000620001bb82620001d6565b9050919050565b6000620001cf82620001ae565b9050919050565b600073ffffffffffffffffffffffffffffffffffffffff82169050919050565b6200020181620001c2565b81146200020d57600080fd5b50565b6110c880620002206000396000f3fe608060405234801561001057600080fd5b506004361061007d5760003560e01c8063c86be8781161005b578063c86be878146100c6578063e5c9ad2e146100e4578063e6d41a8214610102578063f2fde38b146101325761007d565b8063715018a6146100825780638da5cb5b1461008c5780639a88ee9f146100aa575b600080fd5b61008a61014e565b005b6100946101d6565b6040516100a19190610c81565b60405180910390f35b6100c460048036038101906100bf9190610a4a565b6101ff565b005b6100ce6102bf565b6040516100db9190610c81565b60405180910390f35b6100ec6102e5565b6040516100f99190610cc5565b60405180910390f35b61011c60048036038101906101179190610a73565b61030b565b6040516101299190610dc2565b60405180910390f35b61014c60048036038101906101479190610a4a565b61053f565b005b610156610637565b73ffffffffffffffffffffffffffffffffffffffff166101746101d6565b73ffffffffffffffffffffffffffffffffffffffff16146101ca576040517f08c379a00000000000000000000000000000000000000000000000000000000081526004016101c190610d62565b60405180910390fd5b6101d4600061063f565b565b60008060009054906101000a900473ffffffffffffffffffffffffffffffffffffffff16905090565b610207610637565b73ffffffffffffffffffffffffffffffffffffffff166102256101d6565b73ffffffffffffffffffffffffffffffffffffffff161461027b576040517f08c379a000000000000000000000000000000000000000000000000000000000815260040161027290610d62565b60405180910390fd5b80600260006101000a81548173ffffffffffffffffffffffffffffffffffffffff021916908373ffffffffffffffffffffffffffffffffffffffff16021790555050565b600260009054906101000a900473ffffffffffffffffffffffffffffffffffffffff1681565b600160009054906101000a900473ffffffffffffffffffffffffffffffffffffffff1681565b6000600260009054906101000a900473ffffffffffffffffffffffffffffffffffffffff1673ffffffffffffffffffffffffffffffffffffffff163373ffffffffffffffffffffffffffffffffffffffff16148061039b575061036c6101d6565b73ffffffffffffffffffffffffffffffffffffffff163373ffffffffffffffffffffffffffffffffffffffff16145b6103da576040517f08c379a00000000000000000000000000000000000000000000000000000000081526004016103d190610d22565b60405180910390fd5b6000600160009054906101000a900473ffffffffffffffffffffffffffffffffffffffff1673ffffffffffffffffffffffffffffffffffffffff166370a08231306040518263ffffffff1660e01b81526004016104379190610c81565b60206040518083038186803b15801561044f57600080fd5b505afa158015610463573d6000803e3d6000fd5b505050506040513d601f19601f820116820180604052508101906104879190610ad8565b9050808311156104e7576104de8482600160009054906101000a900473ffffffffffffffffffffffffffffffffffffffff1673ffffffffffffffffffffffffffffffffffffffff166107039092919063ffffffff16565b80915050610539565b6105348484600160009054906101000a900473ffffffffffffffffffffffffffffffffffffffff1673ffffffffffffffffffffffffffffffffffffffff166107039092919063ffffffff16565b829150505b92915050565b610547610637565b73ffffffffffffffffffffffffffffffffffffffff166105656101d6565b73ffffffffffffffffffffffffffffffffffffffff16146105bb576040517f08c379a00000000000000000000000000000000000000000000000000000000081526004016105b290610d62565b60405180910390fd5b600073ffffffffffffffffffffffffffffffffffffffff168173ffffffffffffffffffffffffffffffffffffffff16141561062b576040517f08c379a000000000000000000000000000000000000000000000000000000000815260040161062290610d02565b60405180910390fd5b6106348161063f565b50565b600033905090565b60008060009054906101000a900473ffffffffffffffffffffffffffffffffffffffff169050816000806101000a81548173ffffffffffffffffffffffffffffffffffffffff021916908373ffffffffffffffffffffffffffffffffffffffff1602179055508173ffffffffffffffffffffffffffffffffffffffff168173ffffffffffffffffffffffffffffffffffffffff167f8be0079c531659141344cd1fd0a4f28419497f9722a3daafe3b4186f6b6457e060405160405180910390a35050565b6107848363a9059cbb60e01b8484604051602401610722929190610c9c565b604051602081830303815290604052907bffffffffffffffffffffffffffffffffffffffffffffffffffffffff19166020820180517bffffffffffffffffffffffffffffffffffffffffffffffffffffffff8381831617835250505050610789565b505050565b60006107eb826040518060400160405280602081526020017f5361666545524332303a206c6f772d6c6576656c2063616c6c206661696c65648152508573ffffffffffffffffffffffffffffffffffffffff166108509092919063ffffffff16565b905060008151111561084b578080602001905181019061080b9190610aaf565b61084a576040517f08c379a000000000000000000000000000000000000000000000000000000000815260040161084190610da2565b60405180910390fd5b5b505050565b606061085f8484600085610868565b90509392505050565b6060824710156108ad576040517f08c379a00000000000000000000000000000000000000000000000000000000081526004016108a490610d42565b60405180910390fd5b6108b68561097c565b6108f5576040517f08c379a00000000000000000000000000000000000000000000000000000000081526004016108ec90610d82565b60405180910390fd5b6000808673ffffffffffffffffffffffffffffffffffffffff16858760405161091e9190610c6a565b60006040518083038185875af1925050503d806000811461095b576040519150601f19603f3d011682016040523d82523d6000602084013e610960565b606091505b509150915061097082828661098f565b92505050949350505050565b600080823b905060008111915050919050565b6060831561099f578290506109ef565b6000835111156109b25782518084602001fd5b816040517f08c379a00000000000000000000000000000000000000000000000000000000081526004016109e69190610ce0565b60405180910390fd5b9392505050565b600081359050610a058161104d565b92915050565b600081519050610a1a81611064565b92915050565b600081359050610a2f8161107b565b92915050565b600081519050610a448161107b565b92915050565b600060208284031215610a5c57600080fd5b6000610a6a848285016109f6565b91505092915050565b60008060408385031215610a8657600080fd5b6000610a94858286016109f6565b9250506020610aa585828601610a20565b9150509250929050565b600060208284031215610ac157600080fd5b6000610acf84828501610a0b565b91505092915050565b600060208284031215610aea57600080fd5b6000610af884828501610a35565b91505092915050565b610b0a81610e0f565b82525050565b6000610b1b82610ddd565b610b258185610df3565b9350610b35818560208601610e7b565b80840191505092915050565b610b4a81610e57565b82525050565b6000610b5b82610de8565b610b658185610dfe565b9350610b75818560208601610e7b565b610b7e81610eae565b840191505092915050565b6000610b96602683610dfe565b9150610ba182610ebf565b604082019050919050565b6000610bb9602e83610dfe565b9150610bc482610f0e565b604082019050919050565b6000610bdc602683610dfe565b9150610be782610f5d565b604082019050919050565b6000610bff602083610dfe565b9150610c0a82610fac565b602082019050919050565b6000610c22601d83610dfe565b9150610c2d82610fd5565b602082019050919050565b6000610c45602a83610dfe565b9150610c5082610ffe565b604082019050919050565b610c6481610e4d565b82525050565b6000610c768284610b10565b915081905092915050565b6000602082019050610c966000830184610b01565b92915050565b6000604082019050610cb16000830185610b01565b610cbe6020830184610c5b565b9392505050565b6000602082019050610cda6000830184610b41565b92915050565b60006020820190508181036000830152610cfa8184610b50565b905092915050565b60006020820190508181036000830152610d1b81610b89565b9050919050565b60006020820190508181036000830152610d3b81610bac565b9050919050565b60006020820190508181036000830152610d5b81610bcf565b9050919050565b60006020820190508181036000830152610d7b81610bf2565b9050919050565b60006020820190508181036000830152610d9b81610c15565b9050919050565b60006020820190508181036000830152610dbb81610c38565b9050919050565b6000602082019050610dd76000830184610c5b565b92915050565b600081519050919050565b600081519050919050565b600081905092915050565b600082825260208201905092915050565b6000610e1a82610e2d565b9050919050565b60008115159050919050565b600073ffffffffffffffffffffffffffffffffffffffff82169050919050565b6000819050919050565b6000610e6282610e69565b9050919050565b6000610e7482610e2d565b9050919050565b60005b83811015610e99578082015181840152602081019050610e7e565b83811115610ea8576000848401525b50505050565b6000601f19601f8301169050919050565b7f4f776e61626c653a206e6577206f776e657220697320746865207a65726f206160008201527f6464726573730000000000000000000000000000000000000000000000000000602082015250565b7f57616c6c65743a204f6e6c79204d61737465725072656420616e64204f776e6560008201527f722063616e207472616e73666572000000000000000000000000000000000000602082015250565b7f416464726573733a20696e73756666696369656e742062616c616e636520666f60008201527f722063616c6c0000000000000000000000000000000000000000000000000000602082015250565b7f4f776e61626c653a2063616c6c6572206973206e6f7420746865206f776e6572600082015250565b7f416464726573733a2063616c6c20746f206e6f6e2d636f6e7472616374000000600082015250565b7f5361666545524332303a204552433230206f7065726174696f6e20646964206e60008201527f6f74207375636365656400000000000000000000000000000000000000000000602082015250565b61105681610e0f565b811461106157600080fd5b50565b61106d81610e21565b811461107857600080fd5b50565b61108481610e4d565b811461108f57600080fd5b5056fea2646970667358221220ec046deb2580fca5b8c6207fbd19a69b348f6292b2d8d36109daca041348e2bd64736f6c63430008020033",
  "linkReferences": {},
  "deployedLinkReferences": {}
}