{
  "_format": "hh-sol-artifact-1",
  "contractName": "MasterPred",
  "sourceName": "contracts/Farm.sol",
  "abi": [
    {
      "anonymous": false,
      "inputs": [
        {
          "indexed": false,
          "internalType": "address",
          "name": "previousAdmin",
          "type": "address"
        },
        {
          "indexed": false,
          "internalType": "address",
          "name": "newAdmin",
          "type": "address"
        }
      ],
      "name": "AdminChanged",
      "type": "event"
    },
    {
      "anonymous": false,
      "inputs": [
        {
          "indexed": true,
          "internalType": "address",
          "name": "beacon",
          "type": "address"
        }
      ],
      "name": "BeaconUpgraded",
      "type": "event"
    },
    {
      "anonymous": false,
      "inputs": [
        {
          "indexed": true,
          "internalType": "address",
          "name": "user",
          "type": "address"
        },
        {
          "indexed": true,
          "internalType": "uint256",
          "name": "pid",
          "type": "uint256"
        },
        {
          "indexed": false,
          "internalType": "uint256",
          "name": "amount",
          "type": "uint256"
        }
      ],
      "name": "Deposit",
      "type": "event"
    },
    {
      "anonymous": false,
      "inputs": [
        {
          "indexed": true,
          "internalType": "address",
          "name": "user",
          "type": "address"
        },
        {
          "indexed": true,
          "internalType": "uint256",
          "name": "pid",
          "type": "uint256"
        },
        {
          "indexed": false,
          "internalType": "uint256",
          "name": "amount",
          "type": "uint256"
        }
      ],
      "name": "EmergencyWithdraw",
      "type": "event"
    },
    {
      "anonymous": false,
      "inputs": [
        {
          "indexed": true,
          "internalType": "address",
          "name": "previousOwner",
          "type": "address"
        },
        {
          "indexed": true,
          "internalType": "address",
          "name": "newOwner",
          "type": "address"
        }
      ],
      "name": "OwnershipTransferred",
      "type": "event"
    },
    {
      "anonymous": false,
      "inputs": [
        {
          "indexed": false,
          "internalType": "address",
          "name": "account",
          "type": "address"
        }
      ],
      "name": "Paused",
      "type": "event"
    },
    {
      "anonymous": false,
      "inputs": [
        {
          "indexed": false,
          "internalType": "address",
          "name": "account",
          "type": "address"
        }
      ],
      "name": "Unpaused",
      "type": "event"
    },
    {
      "anonymous": false,
      "inputs": [
        {
          "indexed": true,
          "internalType": "address",
          "name": "implementation",
          "type": "address"
        }
      ],
      "name": "Upgraded",
      "type": "event"
    },
    {
      "anonymous": false,
      "inputs": [
        {
          "indexed": true,
          "internalType": "address",
          "name": "user",
          "type": "address"
        },
        {
          "indexed": true,
          "internalType": "uint256",
          "name": "pid",
          "type": "uint256"
        },
        {
          "indexed": false,
          "internalType": "uint256",
          "name": "amount",
          "type": "uint256"
        }
      ],
      "name": "Withdraw",
      "type": "event"
    },
    {
      "inputs": [],
      "name": "BONUS_MULTIPLIER",
      "outputs": [
        {
          "internalType": "uint256",
          "name": "",
          "type": "uint256"
        }
      ],
      "stateMutability": "view",
      "type": "function"
    },
    {
      "inputs": [
        {
          "internalType": "uint256",
          "name": "_allocPoint",
          "type": "uint256"
        },
        {
          "internalType": "contract IBEP20",
          "name": "_lpToken",
          "type": "address"
        },
        {
          "internalType": "bool",
          "name": "_withUpdate",
          "type": "bool"
        }
      ],
      "name": "add",
      "outputs": [],
      "stateMutability": "nonpayable",
      "type": "function"
    },
    {
      "inputs": [],
      "name": "compound",
      "outputs": [],
      "stateMutability": "nonpayable",
      "type": "function"
    },
    {
      "inputs": [
        {
          "internalType": "uint256",
          "name": "_pid",
          "type": "uint256"
        },
        {
          "internalType": "uint256",
          "name": "_amount",
          "type": "uint256"
        }
      ],
      "name": "deposit",
      "outputs": [],
      "stateMutability": "nonpayable",
      "type": "function"
    },
    {
      "inputs": [
        {
          "internalType": "uint256",
          "name": "_pid",
          "type": "uint256"
        }
      ],
      "name": "emergencyWithdraw",
      "outputs": [],
      "stateMutability": "nonpayable",
      "type": "function"
    },
    {
      "inputs": [
        {
          "internalType": "uint256",
          "name": "_from",
          "type": "uint256"
        },
        {
          "internalType": "uint256",
          "name": "_to",
          "type": "uint256"
        }
      ],
      "name": "getMultiplier",
      "outputs": [
        {
          "internalType": "uint256",
          "name": "",
          "type": "uint256"
        }
      ],
      "stateMutability": "view",
      "type": "function"
    },
    {
      "inputs": [
        {
          "internalType": "contract IBEP20",
          "name": "_pred",
          "type": "address"
        },
        {
          "internalType": "uint256",
          "name": "_predPerBlock",
          "type": "uint256"
        },
        {
          "internalType": "uint256",
          "name": "_startBlock",
          "type": "uint256"
        },
        {
          "internalType": "contract MasterPredWallet",
          "name": "_wallet",
          "type": "address"
        }
      ],
      "name": "initialize",
      "outputs": [],
      "stateMutability": "nonpayable",
      "type": "function"
    },
    {
      "inputs": [],
      "name": "massUpdatePools",
      "outputs": [],
      "stateMutability": "nonpayable",
      "type": "function"
    },
    {
      "inputs": [
        {
          "internalType": "uint256",
          "name": "_pid",
          "type": "uint256"
        }
      ],
      "name": "migrate",
      "outputs": [],
      "stateMutability": "nonpayable",
      "type": "function"
    },
    {
      "inputs": [],
      "name": "migrator",
      "outputs": [
        {
          "internalType": "contract IMigratorChef",
          "name": "",
          "type": "address"
        }
      ],
      "stateMutability": "view",
      "type": "function"
    },
    {
      "inputs": [],
      "name": "owner",
      "outputs": [
        {
          "internalType": "address",
          "name": "",
          "type": "address"
        }
      ],
      "stateMutability": "view",
      "type": "function"
    },
    {
      "inputs": [],
      "name": "pause",
      "outputs": [],
      "stateMutability": "nonpayable",
      "type": "function"
    },
    {
      "inputs": [],
      "name": "paused",
      "outputs": [
        {
          "internalType": "bool",
          "name": "",
          "type": "bool"
        }
      ],
      "stateMutability": "view",
      "type": "function"
    },
    {
      "inputs": [
        {
          "internalType": "uint256",
          "name": "_pid",
          "type": "uint256"
        },
        {
          "internalType": "address",
          "name": "_user",
          "type": "address"
        }
      ],
      "name": "pendingPred",
      "outputs": [
        {
          "internalType": "uint256",
          "name": "",
          "type": "uint256"
        }
      ],
      "stateMutability": "view",
      "type": "function"
    },
    {
      "inputs": [
        {
          "internalType": "uint256",
          "name": "",
          "type": "uint256"
        }
      ],
      "name": "poolInfo",
      "outputs": [
        {
          "internalType": "contract IBEP20",
          "name": "lpToken",
          "type": "address"
        },
        {
          "internalType": "uint256",
          "name": "allocPoint",
          "type": "uint256"
        },
        {
          "internalType": "uint256",
          "name": "lastRewardBlock",
          "type": "uint256"
        },
        {
          "internalType": "uint256",
          "name": "accPredPerShare",
          "type": "uint256"
        }
      ],
      "stateMutability": "view",
      "type": "function"
    },
    {
      "inputs": [],
      "name": "poolLength",
      "outputs": [
        {
          "internalType": "uint256",
          "name": "",
          "type": "uint256"
        }
      ],
      "stateMutability": "view",
      "type": "function"
    },
    {
      "inputs": [],
      "name": "pred",
      "outputs": [
        {
          "internalType": "contract IBEP20",
          "name": "",
          "type": "address"
        }
      ],
      "stateMutability": "view",
      "type": "function"
    },
    {
      "inputs": [],
      "name": "predPerBlock",
      "outputs": [
        {
          "internalType": "uint256",
          "name": "",
          "type": "uint256"
        }
      ],
      "stateMutability": "view",
      "type": "function"
    },
    {
      "inputs": [],
      "name": "renounceOwnership",
      "outputs": [],
      "stateMutability": "nonpayable",
      "type": "function"
    },
    {
      "inputs": [
        {
          "internalType": "uint256",
          "name": "_pid",
          "type": "uint256"
        },
        {
          "internalType": "uint256",
          "name": "_allocPoint",
          "type": "uint256"
        },
        {
          "internalType": "bool",
          "name": "_withUpdate",
          "type": "bool"
        }
      ],
      "name": "set",
      "outputs": [],
      "stateMutability": "nonpayable",
      "type": "function"
    },
    {
      "inputs": [
        {
          "internalType": "contract IMigratorChef",
          "name": "_migrator",
          "type": "address"
        }
      ],
      "name": "setMigrator",
      "outputs": [],
      "stateMutability": "nonpayable",
      "type": "function"
    },
    {
      "inputs": [],
      "name": "startBlock",
      "outputs": [
        {
          "internalType": "uint256",
          "name": "",
          "type": "uint256"
        }
      ],
      "stateMutability": "view",
      "type": "function"
    },
    {
      "inputs": [],
      "name": "totalAllocPoint",
      "outputs": [
        {
          "internalType": "uint256",
          "name": "",
          "type": "uint256"
        }
      ],
      "stateMutability": "view",
      "type": "function"
    },
    {
      "inputs": [],
      "name": "totalRewardDebt",
      "outputs": [
        {
          "internalType": "uint256",
          "name": "",
          "type": "uint256"
        }
      ],
      "stateMutability": "view",
      "type": "function"
    },
    {
      "inputs": [
        {
          "internalType": "address",
          "name": "newOwner",
          "type": "address"
        }
      ],
      "name": "transferOwnership",
      "outputs": [],
      "stateMutability": "nonpayable",
      "type": "function"
    },
    {
      "inputs": [],
      "name": "unpause",
      "outputs": [],
      "stateMutability": "nonpayable",
      "type": "function"
    },
    {
      "inputs": [
        {
          "internalType": "uint256",
          "name": "multiplierNumber",
          "type": "uint256"
        }
      ],
      "name": "updateMultiplier",
      "outputs": [],
      "stateMutability": "nonpayable",
      "type": "function"
    },
    {
      "inputs": [
        {
          "internalType": "uint256",
          "name": "_pid",
          "type": "uint256"
        }
      ],
      "name": "updatePool",
      "outputs": [],
      "stateMutability": "nonpayable",
      "type": "function"
    },
    {
      "inputs": [
        {
          "internalType": "address",
          "name": "newImplementation",
          "type": "address"
        }
      ],
      "name": "upgradeTo",
      "outputs": [],
      "stateMutability": "nonpayable",
      "type": "function"
    },
    {
      "inputs": [
        {
          "internalType": "address",
          "name": "newImplementation",
          "type": "address"
        },
        {
          "internalType": "bytes",
          "name": "data",
          "type": "bytes"
        }
      ],
      "name": "upgradeToAndCall",
      "outputs": [],
      "stateMutability": "payable",
      "type": "function"
    },
    {
      "inputs": [
        {
          "internalType": "uint256",
          "name": "",
          "type": "uint256"
        },
        {
          "internalType": "address",
          "name": "",
          "type": "address"
        }
      ],
      "name": "userInfo",
      "outputs": [
        {
          "internalType": "uint256",
          "name": "amount",
          "type": "uint256"
        },
        {
          "internalType": "uint256",
          "name": "rewardDebt",
          "type": "uint256"
        }
      ],
      "stateMutability": "view",
      "type": "function"
    },
    {
      "inputs": [],
      "name": "wallet",
      "outputs": [
        {
          "internalType": "contract MasterPredWallet",
          "name": "",
          "type": "address"
        }
      ],
      "stateMutability": "view",
      "type": "function"
    },
    {
      "inputs": [
        {
          "internalType": "uint256",
          "name": "_pid",
          "type": "uint256"
        },
        {
          "internalType": "uint256",
          "name": "_amount",
          "type": "uint256"
        }
      ],
      "name": "withdraw",
      "outputs": [],
      "stateMutability": "nonpayable",
      "type": "function"
    }
  ],
  "bytecode": "0x608060405234801561001057600080fd5b50614bbe806100206000396000f3fe6080604052600436106101ee5760003560e01c80635ffe61461161010d5780638aa28550116100a05780639e3d87cd1161006f5780639e3d87cd14610682578063e2bbb158146106ab578063e5c9ad2e146106d4578063f2fde38b146106ff578063f69e204614610728576101ee565b80638aa28550146105b15780638da5cb5b146105dc5780638dbb1e3a1461060757806393f1a40b14610644576101ee565b8063715018a6116100dc578063715018a61461052d5780637cd07e471461054457806383bb38771461056f5780638456cb591461059a576101ee565b80635ffe614614610487578063630b5ba1146104b057806364482f79146104c75780636450b8a9146104f0576101ee565b8063441a3e701161018557806351eb05a61161015457806351eb05a6146103df578063521eb273146104085780635312ea8e146104335780635c975abb1461045c576101ee565b8063441a3e7014610346578063454b06081461036f57806348cd4cb1146103985780634f1ef286146103c3576101ee565b80631fc7be89116101c15780631fc7be89146102b257806323cf3118146102dd5780633659cfe6146103065780633f4ba83a1461032f576101ee565b8063081e3eda146101f35780631526fe271461021e57806317caf6f11461025e5780631eaaa04514610289575b600080fd5b3480156101ff57600080fd5b5061020861073f565b604051610215919061431b565b60405180910390f35b34801561022a57600080fd5b5061024560048036038101906102409190613b74565b61074d565b604051610255949392919061409e565b60405180910390f35b34801561026a57600080fd5b506102736107ae565b604051610280919061431b565b60405180910390f35b34801561029557600080fd5b506102b060048036038101906102ab9190613c02565b6107b5565b005b3480156102be57600080fd5b506102c7610947565b6040516102d4919061431b565b60405180910390f35b3480156102e957600080fd5b5061030460048036038101906102ff9190613b4b565b61094d565b005b34801561031257600080fd5b5061032d60048036038101906103289190613a19565b610a0d565b005b34801561033b57600080fd5b50610344610a34565b005b34801561035257600080fd5b5061036d60048036038101906103689190613c51565b610aba565b005b34801561037b57600080fd5b5061039660048036038101906103919190613b74565b610d6c565b005b3480156103a457600080fd5b506103ad611113565b6040516103ba919061431b565b60405180910390f35b6103dd60048036038101906103d89190613a42565b61111a565b005b3480156103eb57600080fd5b5061040660048036038101906104019190613b74565b611133565b005b34801561041457600080fd5b5061041d611421565b60405161042a91906140fe565b60405180910390f35b34801561043f57600080fd5b5061045a60048036038101906104559190613b74565b611447565b005b34801561046857600080fd5b5061047161166a565b60405161047e9190614068565b60405180910390f35b34801561049357600080fd5b506104ae60048036038101906104a99190613b74565b611681565b005b3480156104bc57600080fd5b506104c5611707565b005b3480156104d357600080fd5b506104ee60048036038101906104e99190613c8d565b61173b565b005b3480156104fc57600080fd5b5061051760048036038101906105129190613bc6565b6118a5565b604051610524919061431b565b60405180910390f35b34801561053957600080fd5b50610542611c04565b005b34801561055057600080fd5b50610559611c8c565b60405161056691906140e3565b60405180910390f35b34801561057b57600080fd5b50610584611cb2565b604051610591919061431b565b60405180910390f35b3480156105a657600080fd5b506105af611cb9565b005b3480156105bd57600080fd5b506105c6611d3f565b6040516105d3919061431b565b60405180910390f35b3480156105e857600080fd5b506105f1611d45565b6040516105fe9190613fc4565b60405180910390f35b34801561061357600080fd5b5061062e60048036038101906106299190613c51565b611d6f565b60405161063b919061431b565b60405180910390f35b34801561065057600080fd5b5061066b60048036038101906106669190613bc6565b611da0565b604051610679929190614336565b60405180910390f35b34801561068e57600080fd5b506106a960048036038101906106a49190613ae8565b611dd2565b005b3480156106b757600080fd5b506106d260048036038101906106cd9190613c51565b61202a565b005b3480156106e057600080fd5b506106e9612415565b6040516106f69190614083565b60405180910390f35b34801561070b57600080fd5b5061072660048036038101906107219190613a19565b61243b565b005b34801561073457600080fd5b5061073d612533565b005b600061010080549050905090565b610100818154811061075e57600080fd5b90600052602060002090600402016000915090508060000160009054906101000a900473ffffffffffffffffffffffffffffffffffffffff16908060010154908060020154908060030154905084565b6101025481565b6107bd612914565b73ffffffffffffffffffffffffffffffffffffffff166107db611d45565b73ffffffffffffffffffffffffffffffffffffffff1614610831576040517f08c379a00000000000000000000000000000000000000000000000000000000081526004016108289061421b565b60405180910390fd5b80156108405761083f611707565b5b60006101035443116108555761010354610857565b435b905061086f846101025461291c90919063ffffffff16565b6101028190555061010060405180608001604052808573ffffffffffffffffffffffffffffffffffffffff1681526020018681526020018381526020016000815250908060018154018082558091505060019003906000526020600020906004020160009091909190915060008201518160000160006101000a81548173ffffffffffffffffffffffffffffffffffffffff021916908373ffffffffffffffffffffffffffffffffffffffff160217905550602082015181600101556040820151816002015560608201518160030155505050505050565b60fc5481565b610955612914565b73ffffffffffffffffffffffffffffffffffffffff16610973611d45565b73ffffffffffffffffffffffffffffffffffffffff16146109c9576040517f08c379a00000000000000000000000000000000000000000000000000000000081526004016109c09061421b565b60405180910390fd5b8060fe60006101000a81548173ffffffffffffffffffffffffffffffffffffffff021916908373ffffffffffffffffffffffffffffffffffffffff16021790555050565b610a1681612932565b610a31816040518060200160405280600081525060006129b1565b50565b610a3c612914565b73ffffffffffffffffffffffffffffffffffffffff16610a5a611d45565b73ffffffffffffffffffffffffffffffffffffffff1614610ab0576040517f08c379a0000000000000000000000000000000000000000000000000000000008152600401610aa79061421b565b60405180910390fd5b610ab8612b82565b565b610ac261166a565b15610b02576040517f08c379a0000000000000000000000000000000000000000000000000000000008152600401610af9906141bb565b60405180910390fd5b60006101008381548110610b3f577f4e487b7100000000000000000000000000000000000000000000000000000000600052603260045260246000fd5b906000526020600020906004020190506000610101600085815260200190815260200160002060003373ffffffffffffffffffffffffffffffffffffffff1673ffffffffffffffffffffffffffffffffffffffff16815260200190815260200160002090508281600001541015610beb576040517f08c379a0000000000000000000000000000000000000000000000000000000008152600401610be29061427b565b60405180910390fd5b610bf484611133565b6000610c468260010154610c386c0c9f2c9cd04674edea40000000610c2a87600301548760000154612c2490919063ffffffff16565b612c3a90919063ffffffff16565b612c5090919063ffffffff16565b90506000811115610c5c57610c5b3382612c66565b5b6000841115610cd457610c7c848360000154612c5090919063ffffffff16565b8260000181905550610cd333858560000160009054906101000a900473ffffffffffffffffffffffffffffffffffffffff1673ffffffffffffffffffffffffffffffffffffffff16612d359092919063ffffffff16565b5b610d0e6c0c9f2c9cd04674edea40000000610d0085600301548560000154612c2490919063ffffffff16565b612c3a90919063ffffffff16565b8260010181905550843373ffffffffffffffffffffffffffffffffffffffff167ff279e6a1f5e320cca91135676d9cb6e44ca8a08c0b88342bcdb1144f6511b56886604051610d5d919061431b565b60405180910390a35050505050565b600073ffffffffffffffffffffffffffffffffffffffff1660fe60009054906101000a900473ffffffffffffffffffffffffffffffffffffffff1673ffffffffffffffffffffffffffffffffffffffff161415610dfe576040517f08c379a0000000000000000000000000000000000000000000000000000000008152600401610df5906142fb565b60405180910390fd5b60006101008281548110610e3b577f4e487b7100000000000000000000000000000000000000000000000000000000600052603260045260246000fd5b9060005260206000209060040201905060008160000160009054906101000a900473ffffffffffffffffffffffffffffffffffffffff16905060008173ffffffffffffffffffffffffffffffffffffffff166370a08231306040518263ffffffff1660e01b8152600401610eaf9190613fc4565b60206040518083038186803b158015610ec757600080fd5b505afa158015610edb573d6000803e3d6000fd5b505050506040513d601f19601f82011682018060405250810190610eff9190613b9d565b9050610f4e60fe60009054906101000a900473ffffffffffffffffffffffffffffffffffffffff16828473ffffffffffffffffffffffffffffffffffffffff16612dbb9092919063ffffffff16565b600060fe60009054906101000a900473ffffffffffffffffffffffffffffffffffffffff1673ffffffffffffffffffffffffffffffffffffffff1663ce5494bb846040518263ffffffff1660e01b8152600401610fab9190614083565b602060405180830381600087803b158015610fc557600080fd5b505af1158015610fd9573d6000803e3d6000fd5b505050506040513d601f19601f82011682018060405250810190610ffd9190613abf565b90508073ffffffffffffffffffffffffffffffffffffffff166370a08231306040518263ffffffff1660e01b81526004016110389190613fc4565b60206040518083038186803b15801561105057600080fd5b505afa158015611064573d6000803e3d6000fd5b505050506040513d601f19601f820116820180604052508101906110889190613b9d565b82146110c9576040517f08c379a00000000000000000000000000000000000000000000000000000000081526004016110c0906142bb565b60405180910390fd5b808460000160006101000a81548173ffffffffffffffffffffffffffffffffffffffff021916908373ffffffffffffffffffffffffffffffffffffffff1602179055505050505050565b6101035481565b61112382612932565b61112f828260016129b1565b5050565b60006101008281548110611170577f4e487b7100000000000000000000000000000000000000000000000000000000600052603260045260246000fd5b9060005260206000209060040201905080600201544311611191575061141e565b60008160000160009054906101000a900473ffffffffffffffffffffffffffffffffffffffff1673ffffffffffffffffffffffffffffffffffffffff166370a08231306040518263ffffffff1660e01b81526004016111f09190613fc4565b60206040518083038186803b15801561120857600080fd5b505afa15801561121c573d6000803e3d6000fd5b505050506040513d601f19601f820116820180604052508101906112409190613b9d565b9050600081141561125b57438260020181905550505061141e565b600061126b836002015443611d6f565b905060006112af610102546112a1866001015461129360fc5487612c2490919063ffffffff16565b612c2490919063ffffffff16565b612c3a90919063ffffffff16565b905060006113956101045460fb60009054906101000a900473ffffffffffffffffffffffffffffffffffffffff1673ffffffffffffffffffffffffffffffffffffffff166370a0823160ff60009054906101000a900473ffffffffffffffffffffffffffffffffffffffff166040518263ffffffff1660e01b81526004016113379190613fc4565b60206040518083038186803b15801561134f57600080fd5b505afa158015611363573d6000803e3d6000fd5b505050506040513d601f19601f820116820180604052508101906113879190613b9d565b612c5090919063ffffffff16565b90508082106113a2578091505b6113ea6113d7856113c96c0c9f2c9cd04674edea4000000086612c2490919063ffffffff16565b612c3a90919063ffffffff16565b866003015461291c90919063ffffffff16565b8560030181905550611408826101045461291c90919063ffffffff16565b6101048190555043856002018190555050505050505b50565b60ff60009054906101000a900473ffffffffffffffffffffffffffffffffffffffff1681565b61144f61166a565b61148e576040517f08c379a00000000000000000000000000000000000000000000000000000000081526004016114859061413b565b60405180910390fd5b600061010082815481106114cb577f4e487b7100000000000000000000000000000000000000000000000000000000600052603260045260246000fd5b906000526020600020906004020190506000610101600084815260200190815260200160002060003373ffffffffffffffffffffffffffffffffffffffff1673ffffffffffffffffffffffffffffffffffffffff16815260200190815260200160002090506000816000015490506000826000018190555060008260010181905550600061159b836001015461158d6c0c9f2c9cd04674edea4000000061157f886003015487612c2490919063ffffffff16565b612c3a90919063ffffffff16565b612c5090919063ffffffff16565b90506101045481116115c5576115bd8161010454612c5090919063ffffffff16565b610104819055505b61161433838660000160009054906101000a900473ffffffffffffffffffffffffffffffffffffffff1673ffffffffffffffffffffffffffffffffffffffff16612d359092919063ffffffff16565b843373ffffffffffffffffffffffffffffffffffffffff167fbb757047c2b5f3974fe26b7c10f732e7bce710b0952a71082702781e62ae05958460405161165b919061431b565b60405180910390a35050505050565b6000603360009054906101000a900460ff16905090565b611689612914565b73ffffffffffffffffffffffffffffffffffffffff166116a7611d45565b73ffffffffffffffffffffffffffffffffffffffff16146116fd576040517f08c379a00000000000000000000000000000000000000000000000000000000081526004016116f49061421b565b60405180910390fd5b8060fd8190555050565b600061010080549050905060005b818110156117375761172681611133565b8061173090614659565b9050611715565b5050565b611743612914565b73ffffffffffffffffffffffffffffffffffffffff16611761611d45565b73ffffffffffffffffffffffffffffffffffffffff16146117b7576040517f08c379a00000000000000000000000000000000000000000000000000000000081526004016117ae9061421b565b60405180910390fd5b80156117c6576117c5611707565b5b60006101008481548110611803577f4e487b7100000000000000000000000000000000000000000000000000000000600052603260045260246000fd5b9060005260206000209060040201600101549050826101008581548110611853577f4e487b7100000000000000000000000000000000000000000000000000000000600052603260045260246000fd5b90600052602060002090600402016001018190555082811461189f57611897836118898361010254612c5090919063ffffffff16565b61291c90919063ffffffff16565b610102819055505b50505050565b60008061010084815481106118e3577f4e487b7100000000000000000000000000000000000000000000000000000000600052603260045260246000fd5b906000526020600020906004020190506000610101600086815260200190815260200160002060008573ffffffffffffffffffffffffffffffffffffffff1673ffffffffffffffffffffffffffffffffffffffff168152602001908152602001600020905060008260030154905060008360000160009054906101000a900473ffffffffffffffffffffffffffffffffffffffff1673ffffffffffffffffffffffffffffffffffffffff166370a08231306040518263ffffffff1660e01b81526004016119b09190613fc4565b60206040518083038186803b1580156119c857600080fd5b505afa1580156119dc573d6000803e3d6000fd5b505050506040513d601f19601f82011682018060405250810190611a009190613b9d565b9050836002015443118015611a16575060008114155b15611bac576000611a2b856002015443611d6f565b90506000611a6f61010254611a618860010154611a5360fc5487612c2490919063ffffffff16565b612c2490919063ffffffff16565b612c3a90919063ffffffff16565b90506000611b556101045460fb60009054906101000a900473ffffffffffffffffffffffffffffffffffffffff1673ffffffffffffffffffffffffffffffffffffffff166370a0823160ff60009054906101000a900473ffffffffffffffffffffffffffffffffffffffff166040518263ffffffff1660e01b8152600401611af79190613fc4565b60206040518083038186803b158015611b0f57600080fd5b505afa158015611b23573d6000803e3d6000fd5b505050506040513d601f19601f82011682018060405250810190611b479190613b9d565b612c5090919063ffffffff16565b9050808210611b62578091505b611ba6611b9785611b896c0c9f2c9cd04674edea4000000086612c2490919063ffffffff16565b612c3a90919063ffffffff16565b8661291c90919063ffffffff16565b94505050505b611bf88360010154611bea6c0c9f2c9cd04674edea40000000611bdc868860000154612c2490919063ffffffff16565b612c3a90919063ffffffff16565b612c5090919063ffffffff16565b94505050505092915050565b611c0c612914565b73ffffffffffffffffffffffffffffffffffffffff16611c2a611d45565b73ffffffffffffffffffffffffffffffffffffffff1614611c80576040517f08c379a0000000000000000000000000000000000000000000000000000000008152600401611c779061421b565b60405180910390fd5b611c8a6000612f19565b565b60fe60009054906101000a900473ffffffffffffffffffffffffffffffffffffffff1681565b6101045481565b611cc1612914565b73ffffffffffffffffffffffffffffffffffffffff16611cdf611d45565b73ffffffffffffffffffffffffffffffffffffffff1614611d35576040517f08c379a0000000000000000000000000000000000000000000000000000000008152600401611d2c9061421b565b60405180910390fd5b611d3d612fdf565b565b60fd5481565b600060c960009054906101000a900473ffffffffffffffffffffffffffffffffffffffff16905090565b6000611d9860fd54611d8a8585612c5090919063ffffffff16565b612c2490919063ffffffff16565b905092915050565b610101602052816000526040600020602052806000526040600020600091509150508060000154908060010154905082565b600060019054906101000a900460ff1680611df8575060008054906101000a900460ff16155b611e37576040517f08c379a0000000000000000000000000000000000000000000000000000000008152600401611e2e906141db565b60405180910390fd5b60008060019054906101000a900460ff161590508015611e87576001600060016101000a81548160ff02191690831515021790555060016000806101000a81548160ff0219169083151502179055505b611e8f613082565b8460fb60006101000a81548173ffffffffffffffffffffffffffffffffffffffff021916908373ffffffffffffffffffffffffffffffffffffffff1602179055508360fc8190555082610103819055508160ff60006101000a81548173ffffffffffffffffffffffffffffffffffffffff021916908373ffffffffffffffffffffffffffffffffffffffff16021790555061010060405180608001604052808773ffffffffffffffffffffffffffffffffffffffff16815260200160c881526020016101035481526020016000815250908060018154018082558091505060019003906000526020600020906004020160009091909190915060008201518160000160006101000a81548173ffffffffffffffffffffffffffffffffffffffff021916908373ffffffffffffffffffffffffffffffffffffffff1602179055506020820151816001015560408201518160020155606082015181600301555050620f424060fd8190555060c86101028190555080156120235760008060016101000a81548160ff0219169083151502179055505b5050505050565b61203261166a565b15612072576040517f08c379a0000000000000000000000000000000000000000000000000000000008152600401612069906141bb565b60405180910390fd5b600061010083815481106120af577f4e487b7100000000000000000000000000000000000000000000000000000000600052603260045260246000fd5b906000526020600020906004020190506000610101600085815260200190815260200160002060003373ffffffffffffffffffffffffffffffffffffffff1673ffffffffffffffffffffffffffffffffffffffff168152602001908152602001600020905061211d84611133565b60008160000154111561219457600061217c826001015461216e6c0c9f2c9cd04674edea4000000061216087600301548760000154612c2490919063ffffffff16565b612c3a90919063ffffffff16565b612c5090919063ffffffff16565b90506000811115612192576121913382612c66565b5b505b600083111561237e5760008260000160009054906101000a900473ffffffffffffffffffffffffffffffffffffffff1673ffffffffffffffffffffffffffffffffffffffff166370a08231306040518263ffffffff1660e01b81526004016121fc9190613fc4565b60206040518083038186803b15801561221457600080fd5b505afa158015612228573d6000803e3d6000fd5b505050506040513d601f19601f8201168201806040525081019061224c9190613b9d565b905061229f3330868660000160009054906101000a900473ffffffffffffffffffffffffffffffffffffffff1673ffffffffffffffffffffffffffffffffffffffff1661316b909392919063ffffffff16565b612374612361828560000160009054906101000a900473ffffffffffffffffffffffffffffffffffffffff1673ffffffffffffffffffffffffffffffffffffffff166370a08231306040518263ffffffff1660e01b81526004016123039190613fc4565b60206040518083038186803b15801561231b57600080fd5b505afa15801561232f573d6000803e3d6000fd5b505050506040513d601f19601f820116820180604052508101906123539190613b9d565b612c5090919063ffffffff16565b836000015461291c90919063ffffffff16565b8260000181905550505b6123b86c0c9f2c9cd04674edea400000006123aa84600301548460000154612c2490919063ffffffff16565b612c3a90919063ffffffff16565b8160010181905550833373ffffffffffffffffffffffffffffffffffffffff167f90890809c654f11d6e72a28fa60149770a0d11ec6c92319d6ceb2bb0a4ea1a1585604051612407919061431b565b60405180910390a350505050565b60fb60009054906101000a900473ffffffffffffffffffffffffffffffffffffffff1681565b612443612914565b73ffffffffffffffffffffffffffffffffffffffff16612461611d45565b73ffffffffffffffffffffffffffffffffffffffff16146124b7576040517f08c379a00000000000000000000000000000000000000000000000000000000081526004016124ae9061421b565b60405180910390fd5b600073ffffffffffffffffffffffffffffffffffffffff168173ffffffffffffffffffffffffffffffffffffffff161415612527576040517f08c379a000000000000000000000000000000000000000000000000000000000815260040161251e9061417b565b60405180910390fd5b61253081612f19565b50565b61253b61166a565b1561257b576040517f08c379a0000000000000000000000000000000000000000000000000000000008152600401612572906141bb565b60405180910390fd5b60006101006000815481106125b9577f4e487b7100000000000000000000000000000000000000000000000000000000600052603260045260246000fd5b906000526020600020906004020190506000610101600080815260200190815260200160002060003373ffffffffffffffffffffffffffffffffffffffff1673ffffffffffffffffffffffffffffffffffffffff16815260200190815260200160002090506126286000611133565b60008160000154111561291057600061268782600101546126796c0c9f2c9cd04674edea4000000061266b87600301548760000154612c2490919063ffffffff16565b612c3a90919063ffffffff16565b612c5090919063ffffffff16565b905060008360000160009054906101000a900473ffffffffffffffffffffffffffffffffffffffff1673ffffffffffffffffffffffffffffffffffffffff166370a08231306040518263ffffffff1660e01b81526004016126e89190613fc4565b60206040518083038186803b15801561270057600080fd5b505afa158015612714573d6000803e3d6000fd5b505050506040513d601f19601f820116820180604052508101906127389190613b9d565b9050600082111561274e5761274d3083612c66565b5b612823612810828660000160009054906101000a900473ffffffffffffffffffffffffffffffffffffffff1673ffffffffffffffffffffffffffffffffffffffff166370a08231306040518263ffffffff1660e01b81526004016127b29190613fc4565b60206040518083038186803b1580156127ca57600080fd5b505afa1580156127de573d6000803e3d6000fd5b505050506040513d601f19601f820116820180604052508101906128029190613b9d565b612c5090919063ffffffff16565b846000015461291c90919063ffffffff16565b83600001819055506128656c0c9f2c9cd04674edea4000000061285786600301548660000154612c2490919063ffffffff16565b612c3a90919063ffffffff16565b836001018190555060003373ffffffffffffffffffffffffffffffffffffffff167ff279e6a1f5e320cca91135676d9cb6e44ca8a08c0b88342bcdb1144f6511b568846040516128b5919061431b565b60405180910390a360003373ffffffffffffffffffffffffffffffffffffffff167f90890809c654f11d6e72a28fa60149770a0d11ec6c92319d6ceb2bb0a4ea1a1584604051612905919061431b565b60405180910390a350505b5050565b600033905090565b6000818361292a91906143e7565b905092915050565b61293a612914565b73ffffffffffffffffffffffffffffffffffffffff16612958611d45565b73ffffffffffffffffffffffffffffffffffffffff16146129ae576040517f08c379a00000000000000000000000000000000000000000000000000000000081526004016129a59061421b565b60405180910390fd5b50565b60006129bb6131f4565b90506129c68461324b565b6000835111806129d35750815b156129e4576129e28484613304565b505b6000612a127f4910fdfa16fed3260ed0e7147f7cc6da11a60208b5b9406d12a635614ffd914360001b6133e8565b90508060000160009054906101000a900460ff16612b7b5760018160000160006101000a81548160ff021916908315150217905550612ade8583604051602401612a5c9190613fc4565b6040516020818303038152906040527f3659cfe6000000000000000000000000000000000000000000000000000000007bffffffffffffffffffffffffffffffffffffffffffffffffffffffff19166020820180517bffffffffffffffffffffffffffffffffffffffffffffffffffffffff8381831617835250505050613304565b5060008160000160006101000a81548160ff021916908315150217905550612b046131f4565b73ffffffffffffffffffffffffffffffffffffffff168273ffffffffffffffffffffffffffffffffffffffff1614612b71576040517f08c379a0000000000000000000000000000000000000000000000000000000008152600401612b689061415b565b60405180910390fd5b612b7a856133f2565b5b5050505050565b612b8a61166a565b612bc9576040517f08c379a0000000000000000000000000000000000000000000000000000000008152600401612bc09061413b565b60405180910390fd5b6000603360006101000a81548160ff0219169083151502179055507f5db9ee0a495bf2e6ff9c91a7834c1ba4fdd244a5e8aa4e537bd38aeae4b073aa612c0d612914565b604051612c1a9190613fc4565b60405180910390a1565b60008183612c32919061446e565b905092915050565b60008183612c48919061443d565b905092915050565b60008183612c5e91906144c8565b905092915050565b612d2a60ff60009054906101000a900473ffffffffffffffffffffffffffffffffffffffff1673ffffffffffffffffffffffffffffffffffffffff1663e6d41a8284846040518363ffffffff1660e01b8152600401612cc692919061403f565b602060405180830381600087803b158015612ce057600080fd5b505af1158015612cf4573d6000803e3d6000fd5b505050506040513d601f19601f82011682018060405250810190612d189190613b9d565b61010454612c5090919063ffffffff16565b610104819055505050565b612db68363a9059cbb60e01b8484604051602401612d5492919061403f565b604051602081830303815290604052907bffffffffffffffffffffffffffffffffffffffffffffffffffffffff19166020820180517bffffffffffffffffffffffffffffffffffffffffffffffffffffffff8381831617835250505050613441565b505050565b6000811480612e54575060008373ffffffffffffffffffffffffffffffffffffffff1663dd62ed3e30856040518363ffffffff1660e01b8152600401612e02929190613fdf565b60206040518083038186803b158015612e1a57600080fd5b505afa158015612e2e573d6000803e3d6000fd5b505050506040513d601f19601f82011682018060405250810190612e529190613b9d565b145b612e93576040517f08c379a0000000000000000000000000000000000000000000000000000000008152600401612e8a906142db565b60405180910390fd5b612f148363095ea7b360e01b8484604051602401612eb292919061403f565b604051602081830303815290604052907bffffffffffffffffffffffffffffffffffffffffffffffffffffffff19166020820180517bffffffffffffffffffffffffffffffffffffffffffffffffffffffff8381831617835250505050613441565b505050565b600060c960009054906101000a900473ffffffffffffffffffffffffffffffffffffffff1690508160c960006101000a81548173ffffffffffffffffffffffffffffffffffffffff021916908373ffffffffffffffffffffffffffffffffffffffff1602179055508173ffffffffffffffffffffffffffffffffffffffff168173ffffffffffffffffffffffffffffffffffffffff167f8be0079c531659141344cd1fd0a4f28419497f9722a3daafe3b4186f6b6457e060405160405180910390a35050565b612fe761166a565b15613027576040517f08c379a000000000000000000000000000000000000000000000000000000000815260040161301e906141bb565b60405180910390fd5b6001603360006101000a81548160ff0219169083151502179055507f62e78cea01bee320cd4e420270b5ea74000d11b0c9f74754ebdbfc544b05a25861306b612914565b6040516130789190613fc4565b60405180910390a1565b600060019054906101000a900460ff16806130a8575060008054906101000a900460ff16155b6130e7576040517f08c379a00000000000000000000000000000000000000000000000000000000081526004016130de906141db565b60405180910390fd5b60008060019054906101000a900460ff161590508015613137576001600060016101000a81548160ff02191690831515021790555060016000806101000a81548160ff0219169083151502179055505b61313f613508565b6131476135e1565b80156131685760008060016101000a81548160ff0219169083151502179055505b50565b6131ee846323b872dd60e01b85858560405160240161318c93929190614008565b604051602081830303815290604052907bffffffffffffffffffffffffffffffffffffffffffffffffffffffff19166020820180517bffffffffffffffffffffffffffffffffffffffffffffffffffffffff8381831617835250505050613441565b50505050565b60006132227f360894a13ba1a3210667c828492db98dca3e2076cc3735a920a3ca505d382bbc60001b6136ca565b60000160009054906101000a900473ffffffffffffffffffffffffffffffffffffffff16905090565b613254816136d4565b613293576040517f08c379a000000000000000000000000000000000000000000000000000000000815260040161328a906141fb565b60405180910390fd5b806132c07f360894a13ba1a3210667c828492db98dca3e2076cc3735a920a3ca505d382bbc60001b6136ca565b60000160006101000a81548173ffffffffffffffffffffffffffffffffffffffff021916908373ffffffffffffffffffffffffffffffffffffffff16021790555050565b606061330f836136d4565b61334e576040517f08c379a00000000000000000000000000000000000000000000000000000000081526004016133459061423b565b60405180910390fd5b6000808473ffffffffffffffffffffffffffffffffffffffff16846040516133769190613fad565b600060405180830381855af49150503d80600081146133b1576040519150601f19603f3d011682016040523d82523d6000602084013e6133b6565b606091505b50915091506133de8282604051806060016040528060278152602001614b62602791396136e7565b9250505092915050565b6000819050919050565b6133fb8161324b565b8073ffffffffffffffffffffffffffffffffffffffff167fbc7cd75a20ee27fd9adebab32041f755214dbc6bffa90cc0225b39da2e5c2d3b60405160405180910390a250565b60006134a3826040518060400160405280602081526020017f5361666545524332303a206c6f772d6c6576656c2063616c6c206661696c65648152508573ffffffffffffffffffffffffffffffffffffffff1661374e9092919063ffffffff16565b905060008151111561350357808060200190518101906134c39190613a96565b613502576040517f08c379a00000000000000000000000000000000000000000000000000000000081526004016134f99061429b565b60405180910390fd5b5b505050565b600060019054906101000a900460ff168061352e575060008054906101000a900460ff16155b61356d576040517f08c379a0000000000000000000000000000000000000000000000000000000008152600401613564906141db565b60405180910390fd5b60008060019054906101000a900460ff1615905080156135bd576001600060016101000a81548160ff02191690831515021790555060016000806101000a81548160ff0219169083151502179055505b80156135de5760008060016101000a81548160ff0219169083151502179055505b50565b600060019054906101000a900460ff1680613607575060008054906101000a900460ff16155b613646576040517f08c379a000000000000000000000000000000000000000000000000000000000815260040161363d906141db565b60405180910390fd5b60008060019054906101000a900460ff161590508015613696576001600060016101000a81548160ff02191690831515021790555060016000806101000a81548160ff0219169083151502179055505b6136a66136a1612914565b612f19565b80156136c75760008060016101000a81548160ff0219169083151502179055505b50565b6000819050919050565b600080823b905060008111915050919050565b606083156136f757829050613747565b60008351111561370a5782518084602001fd5b816040517f08c379a000000000000000000000000000000000000000000000000000000000815260040161373e9190614119565b60405180910390fd5b9392505050565b606061375d8484600085613766565b90509392505050565b6060824710156137ab576040517f08c379a00000000000000000000000000000000000000000000000000000000081526004016137a29061419b565b60405180910390fd5b6137b48561387a565b6137f3576040517f08c379a00000000000000000000000000000000000000000000000000000000081526004016137ea9061425b565b60405180910390fd5b6000808673ffffffffffffffffffffffffffffffffffffffff16858760405161381c9190613fad565b60006040518083038185875af1925050503d8060008114613859576040519150601f19603f3d011682016040523d82523d6000602084013e61385e565b606091505b509150915061386e82828661388d565b92505050949350505050565b600080823b905060008111915050919050565b6060831561389d578290506138ed565b6000835111156138b05782518084602001fd5b816040517f08c379a00000000000000000000000000000000000000000000000000000000081526004016138e49190614119565b60405180910390fd5b9392505050565b600061390761390284614384565b61435f565b90508281526020810184848401111561391f57600080fd5b61392a8482856145e6565b509392505050565b60008135905061394181614ad7565b92915050565b60008135905061395681614aee565b92915050565b60008151905061396b81614aee565b92915050565b600082601f83011261398257600080fd5b81356139928482602086016138f4565b91505092915050565b6000813590506139aa81614b05565b92915050565b6000815190506139bf81614b05565b92915050565b6000813590506139d481614b1c565b92915050565b6000813590506139e981614b33565b92915050565b6000813590506139fe81614b4a565b92915050565b600081519050613a1381614b4a565b92915050565b600060208284031215613a2b57600080fd5b6000613a3984828501613932565b91505092915050565b60008060408385031215613a5557600080fd5b6000613a6385828601613932565b925050602083013567ffffffffffffffff811115613a8057600080fd5b613a8c85828601613971565b9150509250929050565b600060208284031215613aa857600080fd5b6000613ab68482850161395c565b91505092915050565b600060208284031215613ad157600080fd5b6000613adf848285016139b0565b91505092915050565b60008060008060808587031215613afe57600080fd5b6000613b0c8782880161399b565b9450506020613b1d878288016139ef565b9350506040613b2e878288016139ef565b9250506060613b3f878288016139da565b91505092959194509250565b600060208284031215613b5d57600080fd5b6000613b6b848285016139c5565b91505092915050565b600060208284031215613b8657600080fd5b6000613b94848285016139ef565b91505092915050565b600060208284031215613baf57600080fd5b6000613bbd84828501613a04565b91505092915050565b60008060408385031215613bd957600080fd5b6000613be7858286016139ef565b9250506020613bf885828601613932565b9150509250929050565b600080600060608486031215613c1757600080fd5b6000613c25868287016139ef565b9350506020613c368682870161399b565b9250506040613c4786828701613947565b9150509250925092565b60008060408385031215613c6457600080fd5b6000613c72858286016139ef565b9250506020613c83858286016139ef565b9150509250929050565b600080600060608486031215613ca257600080fd5b6000613cb0868287016139ef565b9350506020613cc1868287016139ef565b9250506040613cd286828701613947565b9150509250925092565b613ce5816144fc565b82525050565b613cf48161450e565b82525050565b6000613d05826143b5565b613d0f81856143cb565b9350613d1f8185602086016145f5565b80840191505092915050565b613d348161457a565b82525050565b613d438161459e565b82525050565b613d52816145c2565b82525050565b6000613d63826143c0565b613d6d81856143d6565b9350613d7d8185602086016145f5565b613d868161472f565b840191505092915050565b6000613d9e6014836143d6565b9150613da982614740565b602082019050919050565b6000613dc1602f836143d6565b9150613dcc82614769565b604082019050919050565b6000613de46026836143d6565b9150613def826147b8565b604082019050919050565b6000613e076026836143d6565b9150613e1282614807565b604082019050919050565b6000613e2a6010836143d6565b9150613e3582614856565b602082019050919050565b6000613e4d602e836143d6565b9150613e588261487f565b604082019050919050565b6000613e70602d836143d6565b9150613e7b826148ce565b604082019050919050565b6000613e936020836143d6565b9150613e9e8261491d565b602082019050919050565b6000613eb66026836143d6565b9150613ec182614946565b604082019050919050565b6000613ed9601d836143d6565b9150613ee482614995565b602082019050919050565b6000613efc6012836143d6565b9150613f07826149be565b602082019050919050565b6000613f1f602a836143d6565b9150613f2a826149e7565b604082019050919050565b6000613f42600c836143d6565b9150613f4d82614a36565b602082019050919050565b6000613f656036836143d6565b9150613f7082614a5f565b604082019050919050565b6000613f886014836143d6565b9150613f9382614aae565b602082019050919050565b613fa781614570565b82525050565b6000613fb98284613cfa565b915081905092915050565b6000602082019050613fd96000830184613cdc565b92915050565b6000604082019050613ff46000830185613cdc565b6140016020830184613cdc565b9392505050565b600060608201905061401d6000830186613cdc565b61402a6020830185613cdc565b6140376040830184613f9e565b949350505050565b60006040820190506140546000830185613cdc565b6140616020830184613f9e565b9392505050565b600060208201905061407d6000830184613ceb565b92915050565b60006020820190506140986000830184613d2b565b92915050565b60006080820190506140b36000830187613d2b565b6140c06020830186613f9e565b6140cd6040830185613f9e565b6140da6060830184613f9e565b95945050505050565b60006020820190506140f86000830184613d3a565b92915050565b60006020820190506141136000830184613d49565b92915050565b600060208201905081810360008301526141338184613d58565b905092915050565b6000602082019050818103600083015261415481613d91565b9050919050565b6000602082019050818103600083015261417481613db4565b9050919050565b6000602082019050818103600083015261419481613dd7565b9050919050565b600060208201905081810360008301526141b481613dfa565b9050919050565b600060208201905081810360008301526141d481613e1d565b9050919050565b600060208201905081810360008301526141f481613e40565b9050919050565b6000602082019050818103600083015261421481613e63565b9050919050565b6000602082019050818103600083015261423481613e86565b9050919050565b6000602082019050818103600083015261425481613ea9565b9050919050565b6000602082019050818103600083015261427481613ecc565b9050919050565b6000602082019050818103600083015261429481613eef565b9050919050565b600060208201905081810360008301526142b481613f12565b9050919050565b600060208201905081810360008301526142d481613f35565b9050919050565b600060208201905081810360008301526142f481613f58565b9050919050565b6000602082019050818103600083015261431481613f7b565b9050919050565b60006020820190506143306000830184613f9e565b92915050565b600060408201905061434b6000830185613f9e565b6143586020830184613f9e565b9392505050565b600061436961437a565b90506143758282614628565b919050565b6000604051905090565b600067ffffffffffffffff82111561439f5761439e614700565b5b6143a88261472f565b9050602081019050919050565b600081519050919050565b600081519050919050565b600081905092915050565b600082825260208201905092915050565b60006143f282614570565b91506143fd83614570565b9250827fffffffffffffffffffffffffffffffffffffffffffffffffffffffffffffffff03821115614432576144316146a2565b5b828201905092915050565b600061444882614570565b915061445383614570565b925082614463576144626146d1565b5b828204905092915050565b600061447982614570565b915061448483614570565b9250817fffffffffffffffffffffffffffffffffffffffffffffffffffffffffffffffff04831182151516156144bd576144bc6146a2565b5b828202905092915050565b60006144d382614570565b91506144de83614570565b9250828210156144f1576144f06146a2565b5b828203905092915050565b600061450782614550565b9050919050565b60008115159050919050565b6000614525826144fc565b9050919050565b6000614537826144fc565b9050919050565b6000614549826144fc565b9050919050565b600073ffffffffffffffffffffffffffffffffffffffff82169050919050565b6000819050919050565b60006145858261458c565b9050919050565b600061459782614550565b9050919050565b60006145a9826145b0565b9050919050565b60006145bb82614550565b9050919050565b60006145cd826145d4565b9050919050565b60006145df82614550565b9050919050565b82818337600083830152505050565b60005b838110156146135780820151818401526020810190506145f8565b83811115614622576000848401525b50505050565b6146318261472f565b810181811067ffffffffffffffff821117156146505761464f614700565b5b80604052505050565b600061466482614570565b91507fffffffffffffffffffffffffffffffffffffffffffffffffffffffffffffffff821415614697576146966146a2565b5b600182019050919050565b7f4e487b7100000000000000000000000000000000000000000000000000000000600052601160045260246000fd5b7f4e487b7100000000000000000000000000000000000000000000000000000000600052601260045260246000fd5b7f4e487b7100000000000000000000000000000000000000000000000000000000600052604160045260246000fd5b6000601f19601f8301169050919050565b7f5061757361626c653a206e6f7420706175736564000000000000000000000000600082015250565b7f45524331393637557067726164653a207570677261646520627265616b73206660008201527f7572746865722075706772616465730000000000000000000000000000000000602082015250565b7f4f776e61626c653a206e6577206f776e657220697320746865207a65726f206160008201527f6464726573730000000000000000000000000000000000000000000000000000602082015250565b7f416464726573733a20696e73756666696369656e742062616c616e636520666f60008201527f722063616c6c0000000000000000000000000000000000000000000000000000602082015250565b7f5061757361626c653a2070617573656400000000000000000000000000000000600082015250565b7f496e697469616c697a61626c653a20636f6e747261637420697320616c72656160008201527f647920696e697469616c697a6564000000000000000000000000000000000000602082015250565b7f455243313936373a206e657720696d706c656d656e746174696f6e206973206e60008201527f6f74206120636f6e747261637400000000000000000000000000000000000000602082015250565b7f4f776e61626c653a2063616c6c6572206973206e6f7420746865206f776e6572600082015250565b7f416464726573733a2064656c65676174652063616c6c20746f206e6f6e2d636f60008201527f6e74726163740000000000000000000000000000000000000000000000000000602082015250565b7f416464726573733a2063616c6c20746f206e6f6e2d636f6e7472616374000000600082015250565b7f77697468647261773a206e6f7420676f6f640000000000000000000000000000600082015250565b7f5361666545524332303a204552433230206f7065726174696f6e20646964206e60008201527f6f74207375636365656400000000000000000000000000000000000000000000602082015250565b7f6d6967726174653a206261640000000000000000000000000000000000000000600082015250565b7f5361666545524332303a20617070726f76652066726f6d206e6f6e2d7a65726f60008201527f20746f206e6f6e2d7a65726f20616c6c6f77616e636500000000000000000000602082015250565b7f6d6967726174653a206e6f206d69677261746f72000000000000000000000000600082015250565b614ae0816144fc565b8114614aeb57600080fd5b50565b614af78161450e565b8114614b0257600080fd5b50565b614b0e8161451a565b8114614b1957600080fd5b50565b614b258161452c565b8114614b3057600080fd5b50565b614b3c8161453e565b8114614b4757600080fd5b50565b614b5381614570565b8114614b5e57600080fd5b5056fe416464726573733a206c6f772d6c6576656c2064656c65676174652063616c6c206661696c6564a2646970667358221220b5322a515da716797dc880096172446c5778ee746d7cd9f747e6c20b3c4b257564736f6c63430008020033",
  "linkReferences": {},
  "deployedLinkReferences": {}
}