{
  "_format": "hh-sol-artifact-1",
  "contractName": "PredictcoinSquad",
  "sourceName": "contracts/PredictcoinSquad.sol",
  "abi": [
    {
      "inputs": [],
      "stateMutability": "nonpayable",
      "type": "constructor"
    },
    {
      "anonymous": false,
      "inputs": [
        {
          "indexed": true,
          "internalType": "address",
          "name": "owner",
          "type": "address"
        },
        {
          "indexed": true,
          "internalType": "address",
          "name": "approved",
          "type": "address"
        },
        {
          "indexed": true,
          "internalType": "uint256",
          "name": "tokenId",
          "type": "uint256"
        }
      ],
      "name": "Approval",
      "type": "event"
    },
    {
      "anonymous": false,
      "inputs": [
        {
          "indexed": true,
          "internalType": "address",
          "name": "owner",
          "type": "address"
        },
        {
          "indexed": true,
          "internalType": "address",
          "name": "operator",
          "type": "address"
        },
        {
          "indexed": false,
          "internalType": "bool",
          "name": "approved",
          "type": "bool"
        }
      ],
      "name": "ApprovalForAll",
      "type": "event"
    },
    {
      "anonymous": false,
      "inputs": [
        {
          "indexed": true,
          "internalType": "address",
          "name": "previousOwner",
          "type": "address"
        },
        {
          "indexed": true,
          "internalType": "address",
          "name": "newOwner",
          "type": "address"
        }
      ],
      "name": "OwnershipTransferred",
      "type": "event"
    },
    {
      "anonymous": false,
      "inputs": [
        {
          "indexed": true,
          "internalType": "address",
          "name": "from",
          "type": "address"
        },
        {
          "indexed": true,
          "internalType": "address",
          "name": "to",
          "type": "address"
        },
        {
          "indexed": true,
          "internalType": "uint256",
          "name": "tokenId",
          "type": "uint256"
        }
      ],
      "name": "Transfer",
      "type": "event"
    },
    {
      "inputs": [
        {
          "internalType": "address",
          "name": "to",
          "type": "address"
        },
        {
          "internalType": "uint256",
          "name": "tokenId",
          "type": "uint256"
        }
      ],
      "name": "approve",
      "outputs": [],
      "stateMutability": "nonpayable",
      "type": "function"
    },
    {
      "inputs": [
        {
          "internalType": "address",
          "name": "owner",
          "type": "address"
        }
      ],
      "name": "balanceOf",
      "outputs": [
        {
          "internalType": "uint256",
          "name": "",
          "type": "uint256"
        }
      ],
      "stateMutability": "view",
      "type": "function"
    },
    {
      "inputs": [
        {
          "internalType": "uint256",
          "name": "tokenId",
          "type": "uint256"
        }
      ],
      "name": "getApproved",
      "outputs": [
        {
          "internalType": "address",
          "name": "",
          "type": "address"
        }
      ],
      "stateMutability": "view",
      "type": "function"
    },
    {
      "inputs": [
        {
          "internalType": "address",
          "name": "owner",
          "type": "address"
        },
        {
          "internalType": "address",
          "name": "operator",
          "type": "address"
        }
      ],
      "name": "isApprovedForAll",
      "outputs": [
        {
          "internalType": "bool",
          "name": "",
          "type": "bool"
        }
      ],
      "stateMutability": "view",
      "type": "function"
    },
    {
      "inputs": [
        {
          "internalType": "address",
          "name": "to",
          "type": "address"
        },
        {
          "internalType": "uint256",
          "name": "amount",
          "type": "uint256"
        }
      ],
      "name": "multiMint",
      "outputs": [],
      "stateMutability": "nonpayable",
      "type": "function"
    },
    {
      "inputs": [],
      "name": "name",
      "outputs": [
        {
          "internalType": "string",
          "name": "",
          "type": "string"
        }
      ],
      "stateMutability": "view",
      "type": "function"
    },
    {
      "inputs": [],
      "name": "owner",
      "outputs": [
        {
          "internalType": "address",
          "name": "",
          "type": "address"
        }
      ],
      "stateMutability": "view",
      "type": "function"
    },
    {
      "inputs": [
        {
          "internalType": "uint256",
          "name": "tokenId",
          "type": "uint256"
        }
      ],
      "name": "ownerOf",
      "outputs": [
        {
          "internalType": "address",
          "name": "",
          "type": "address"
        }
      ],
      "stateMutability": "view",
      "type": "function"
    },
    {
      "inputs": [],
      "name": "renounceOwnership",
      "outputs": [],
      "stateMutability": "nonpayable",
      "type": "function"
    },
    {
      "inputs": [
        {
          "internalType": "address",
          "name": "to",
          "type": "address"
        }
      ],
      "name": "safeMint",
      "outputs": [],
      "stateMutability": "nonpayable",
      "type": "function"
    },
    {
      "inputs": [
        {
          "internalType": "address",
          "name": "from",
          "type": "address"
        },
        {
          "internalType": "address",
          "name": "to",
          "type": "address"
        },
        {
          "internalType": "uint256",
          "name": "tokenId",
          "type": "uint256"
        }
      ],
      "name": "safeTransferFrom",
      "outputs": [],
      "stateMutability": "nonpayable",
      "type": "function"
    },
    {
      "inputs": [
        {
          "internalType": "address",
          "name": "from",
          "type": "address"
        },
        {
          "internalType": "address",
          "name": "to",
          "type": "address"
        },
        {
          "internalType": "uint256",
          "name": "tokenId",
          "type": "uint256"
        },
        {
          "internalType": "bytes",
          "name": "data",
          "type": "bytes"
        }
      ],
      "name": "safeTransferFrom",
      "outputs": [],
      "stateMutability": "nonpayable",
      "type": "function"
    },
    {
      "inputs": [
        {
          "internalType": "address",
          "name": "operator",
          "type": "address"
        },
        {
          "internalType": "bool",
          "name": "approved",
          "type": "bool"
        }
      ],
      "name": "setApprovalForAll",
      "outputs": [],
      "stateMutability": "nonpayable",
      "type": "function"
    },
    {
      "inputs": [
        {
          "internalType": "bytes4",
          "name": "interfaceId",
          "type": "bytes4"
        }
      ],
      "name": "supportsInterface",
      "outputs": [
        {
          "internalType": "bool",
          "name": "",
          "type": "bool"
        }
      ],
      "stateMutability": "view",
      "type": "function"
    },
    {
      "inputs": [],
      "name": "symbol",
      "outputs": [
        {
          "internalType": "string",
          "name": "",
          "type": "string"
        }
      ],
      "stateMutability": "view",
      "type": "function"
    },
    {
      "inputs": [
        {
          "internalType": "uint256",
          "name": "index",
          "type": "uint256"
        }
      ],
      "name": "tokenByIndex",
      "outputs": [
        {
          "internalType": "uint256",
          "name": "",
          "type": "uint256"
        }
      ],
      "stateMutability": "view",
      "type": "function"
    },
    {
      "inputs": [
        {
          "internalType": "address",
          "name": "owner",
          "type": "address"
        },
        {
          "internalType": "uint256",
          "name": "index",
          "type": "uint256"
        }
      ],
      "name": "tokenOfOwnerByIndex",
      "outputs": [
        {
          "internalType": "uint256",
          "name": "",
          "type": "uint256"
        }
      ],
      "stateMutability": "view",
      "type": "function"
    },
    {
      "inputs": [
        {
          "internalType": "uint256",
          "name": "tokenId",
          "type": "uint256"
        }
      ],
      "name": "tokenURI",
      "outputs": [
        {
          "internalType": "string",
          "name": "",
          "type": "string"
        }
      ],
      "stateMutability": "view",
      "type": "function"
    },
    {
      "inputs": [],
      "name": "totalSupply",
      "outputs": [
        {
          "internalType": "uint256",
          "name": "",
          "type": "uint256"
        }
      ],
      "stateMutability": "view",
      "type": "function"
    },
    {
      "inputs": [
        {
          "internalType": "address",
          "name": "from",
          "type": "address"
        },
        {
          "internalType": "address",
          "name": "to",
          "type": "address"
        },
        {
          "internalType": "uint256",
          "name": "tokenId",
          "type": "uint256"
        }
      ],
      "name": "transferFrom",
      "outputs": [],
      "stateMutability": "nonpayable",
      "type": "function"
    },
    {
      "inputs": [
        {
          "internalType": "address",
          "name": "newOwner",
          "type": "address"
        }
      ],
      "name": "transferOwnership",
      "outputs": [],
      "stateMutability": "nonpayable",
      "type": "function"
    }
  ],
  "bytecode": "0x60806040526064600c553480156200001657600080fd5b506040518060400160405280601181526020017f50726564696374636f696e2053717561640000000000000000000000000000008152506040518060400160405280600781526020017f505245444e46540000000000000000000000000000000000000000000000000081525081600090805190602001906200009b929190620001ab565b508060019080519060200190620000b4929190620001ab565b505050620000d7620000cb620000dd60201b60201c565b620000e560201b60201c565b620002c0565b600033905090565b6000600a60009054906101000a900473ffffffffffffffffffffffffffffffffffffffff16905081600a60006101000a81548173ffffffffffffffffffffffffffffffffffffffff021916908373ffffffffffffffffffffffffffffffffffffffff1602179055508173ffffffffffffffffffffffffffffffffffffffff168173ffffffffffffffffffffffffffffffffffffffff167f8be0079c531659141344cd1fd0a4f28419497f9722a3daafe3b4186f6b6457e060405160405180910390a35050565b828054620001b9906200025b565b90600052602060002090601f016020900481019282620001dd576000855562000229565b82601f10620001f857805160ff191683800117855562000229565b8280016001018555821562000229579182015b82811115620002285782518255916020019190600101906200020b565b5b5090506200023891906200023c565b5090565b5b80821115620002575760008160009055506001016200023d565b5090565b600060028204905060018216806200027457607f821691505b602082108114156200028b576200028a62000291565b5b50919050565b7f4e487b7100000000000000000000000000000000000000000000000000000000600052602260045260246000fd5b6131d380620002d06000396000f3fe608060405234801561001057600080fd5b50600436106101375760003560e01c80634f6ccce7116100b857806395d89b411161007c57806395d89b411461034c578063a22cb4651461036a578063b88d4fde14610386578063c87b56dd146103a2578063e985e9c5146103d2578063f2fde38b1461040257610137565b80634f6ccce7146102945780636352211e146102c457806370a08231146102f4578063715018a6146103245780638da5cb5b1461032e57610137565b806323b872dd116100ff57806323b872dd146101f45780632649d62e146102105780632f745c591461022c57806340d097c31461025c57806342842e0e1461027857610137565b806301ffc9a71461013c57806306fdde031461016c578063081812fc1461018a578063095ea7b3146101ba57806318160ddd146101d6575b600080fd5b61015660048036038101906101519190612262565b61041e565b6040516101639190612674565b60405180910390f35b610174610430565b604051610181919061268f565b60405180910390f35b6101a4600480360381019061019f91906122bc565b6104c2565b6040516101b1919061260d565b60405180910390f35b6101d460048036038101906101cf9190612222565b610508565b005b6101de610620565b6040516101eb91906128b1565b60405180910390f35b61020e6004803603810190610209919061210c565b61062d565b005b61022a60048036038101906102259190612222565b61068d565b005b61024660048036038101906102419190612222565b6106b9565b60405161025391906128b1565b60405180910390f35b6102766004803603810190610271919061209f565b61075e565b005b610292600480360381019061028d919061210c565b6107d6565b005b6102ae60048036038101906102a991906122bc565b6107f6565b6040516102bb91906128b1565b60405180910390f35b6102de60048036038101906102d991906122bc565b610867565b6040516102eb919061260d565b60405180910390f35b61030e6004803603810190610309919061209f565b610919565b60405161031b91906128b1565b60405180910390f35b61032c6109d1565b005b6103366109e5565b604051610343919061260d565b60405180910390f35b610354610a0f565b604051610361919061268f565b60405180910390f35b610384600480360381019061037f91906121e2565b610aa1565b005b6103a0600480360381019061039b919061215f565b610ab7565b005b6103bc60048036038101906103b791906122bc565b610b19565b6040516103c9919061268f565b60405180910390f35b6103ec60048036038101906103e791906120cc565b610b81565b6040516103f99190612674565b60405180910390f35b61041c6004803603810190610417919061209f565b610c15565b005b600061042982610c99565b9050919050565b60606000805461043f90612ad6565b80601f016020809104026020016040519081016040528092919081815260200182805461046b90612ad6565b80156104b85780601f1061048d576101008083540402835291602001916104b8565b820191906000526020600020905b81548152906001019060200180831161049b57829003601f168201915b5050505050905090565b60006104cd82610d13565b6004600083815260200190815260200160002060009054906101000a900473ffffffffffffffffffffffffffffffffffffffff169050919050565b600061051382610867565b90508073ffffffffffffffffffffffffffffffffffffffff168373ffffffffffffffffffffffffffffffffffffffff161415610584576040517f08c379a000000000000000000000000000000000000000000000000000000000815260040161057b90612831565b60405180910390fd5b8073ffffffffffffffffffffffffffffffffffffffff166105a3610d5e565b73ffffffffffffffffffffffffffffffffffffffff1614806105d257506105d1816105cc610d5e565b610b81565b5b610611576040517f08c379a0000000000000000000000000000000000000000000000000000000008152600401610608906127b1565b60405180910390fd5b61061b8383610d66565b505050565b6000600880549050905090565b61063e610638610d5e565b82610e1f565b61067d576040517f08c379a000000000000000000000000000000000000000000000000000000000815260040161067490612891565b60405180910390fd5b610688838383610eb4565b505050565b60005b818110156106b4576106a18361075e565b80806106ac90612b39565b915050610690565b505050565b60006106c483610919565b8210610705576040517f08c379a00000000000000000000000000000000000000000000000000000000081526004016106fc906126b1565b60405180910390fd5b600660008473ffffffffffffffffffffffffffffffffffffffff1673ffffffffffffffffffffffffffffffffffffffff168152602001908152602001600020600083815260200190815260200160002054905092915050565b61076661111b565b6064610770610620565b106107b0576040517f08c379a00000000000000000000000000000000000000000000000000000000081526004016107a790612851565b60405180910390fd5b60006107bc600b611199565b90506107c8600b6111a7565b6107d282826111bd565b5050565b6107f183838360405180602001604052806000815250610ab7565b505050565b6000610800610620565b8210610841576040517f08c379a000000000000000000000000000000000000000000000000000000000815260040161083890612871565b60405180910390fd5b6008828154811061085557610854612c6f565b5b90600052602060002001549050919050565b6000806002600084815260200190815260200160002060009054906101000a900473ffffffffffffffffffffffffffffffffffffffff169050600073ffffffffffffffffffffffffffffffffffffffff168173ffffffffffffffffffffffffffffffffffffffff161415610910576040517f08c379a000000000000000000000000000000000000000000000000000000000815260040161090790612811565b60405180910390fd5b80915050919050565b60008073ffffffffffffffffffffffffffffffffffffffff168273ffffffffffffffffffffffffffffffffffffffff16141561098a576040517f08c379a000000000000000000000000000000000000000000000000000000000815260040161098190612791565b60405180910390fd5b600360008373ffffffffffffffffffffffffffffffffffffffff1673ffffffffffffffffffffffffffffffffffffffff168152602001908152602001600020549050919050565b6109d961111b565b6109e360006111db565b565b6000600a60009054906101000a900473ffffffffffffffffffffffffffffffffffffffff16905090565b606060018054610a1e90612ad6565b80601f0160208091040260200160405190810160405280929190818152602001828054610a4a90612ad6565b8015610a975780601f10610a6c57610100808354040283529160200191610a97565b820191906000526020600020905b815481529060010190602001808311610a7a57829003601f168201915b5050505050905090565b610ab3610aac610d5e565b83836112a1565b5050565b610ac8610ac2610d5e565b83610e1f565b610b07576040517f08c379a0000000000000000000000000000000000000000000000000000000008152600401610afe90612891565b60405180910390fd5b610b138484848461140e565b50505050565b6060610b2482610d13565b6000610b2e61146a565b90506000815111610b4e5760405180602001604052806000815250610b79565b80610b588461148a565b604051602001610b699291906125e9565b6040516020818303038152906040525b915050919050565b6000600560008473ffffffffffffffffffffffffffffffffffffffff1673ffffffffffffffffffffffffffffffffffffffff16815260200190815260200160002060008373ffffffffffffffffffffffffffffffffffffffff1673ffffffffffffffffffffffffffffffffffffffff16815260200190815260200160002060009054906101000a900460ff16905092915050565b610c1d61111b565b600073ffffffffffffffffffffffffffffffffffffffff168173ffffffffffffffffffffffffffffffffffffffff161415610c8d576040517f08c379a0000000000000000000000000000000000000000000000000000000008152600401610c84906126f1565b60405180910390fd5b610c96816111db565b50565b60007f780e9d63000000000000000000000000000000000000000000000000000000007bffffffffffffffffffffffffffffffffffffffffffffffffffffffff1916827bffffffffffffffffffffffffffffffffffffffffffffffffffffffff19161480610d0c5750610d0b826115eb565b5b9050919050565b610d1c816116cd565b610d5b576040517f08c379a0000000000000000000000000000000000000000000000000000000008152600401610d5290612811565b60405180910390fd5b50565b600033905090565b816004600083815260200190815260200160002060006101000a81548173ffffffffffffffffffffffffffffffffffffffff021916908373ffffffffffffffffffffffffffffffffffffffff160217905550808273ffffffffffffffffffffffffffffffffffffffff16610dd983610867565b73ffffffffffffffffffffffffffffffffffffffff167f8c5be1e5ebec7d5bd14f71427d1e84f3dd0314c0f7b2291e5b200ac8c7c3b92560405160405180910390a45050565b600080610e2b83610867565b90508073ffffffffffffffffffffffffffffffffffffffff168473ffffffffffffffffffffffffffffffffffffffff161480610e6d5750610e6c8185610b81565b5b80610eab57508373ffffffffffffffffffffffffffffffffffffffff16610e93846104c2565b73ffffffffffffffffffffffffffffffffffffffff16145b91505092915050565b8273ffffffffffffffffffffffffffffffffffffffff16610ed482610867565b73ffffffffffffffffffffffffffffffffffffffff1614610f2a576040517f08c379a0000000000000000000000000000000000000000000000000000000008152600401610f2190612711565b60405180910390fd5b600073ffffffffffffffffffffffffffffffffffffffff168273ffffffffffffffffffffffffffffffffffffffff161415610f9a576040517f08c379a0000000000000000000000000000000000000000000000000000000008152600401610f9190612751565b60405180910390fd5b610fa5838383611739565b610fb0600082610d66565b6001600360008573ffffffffffffffffffffffffffffffffffffffff1673ffffffffffffffffffffffffffffffffffffffff168152602001908152602001600020600082825461100091906129ec565b925050819055506001600360008473ffffffffffffffffffffffffffffffffffffffff1673ffffffffffffffffffffffffffffffffffffffff16815260200190815260200160002060008282546110579190612965565b92505081905550816002600083815260200190815260200160002060006101000a81548173ffffffffffffffffffffffffffffffffffffffff021916908373ffffffffffffffffffffffffffffffffffffffff160217905550808273ffffffffffffffffffffffffffffffffffffffff168473ffffffffffffffffffffffffffffffffffffffff167fddf252ad1be2c89b69c2b068fc378daa952ba7f163c4a11628f55a4df523b3ef60405160405180910390a4611116838383611749565b505050565b611123610d5e565b73ffffffffffffffffffffffffffffffffffffffff166111416109e5565b73ffffffffffffffffffffffffffffffffffffffff1614611197576040517f08c379a000000000000000000000000000000000000000000000000000000000815260040161118e906127f1565b60405180910390fd5b565b600081600001549050919050565b6001816000016000828254019250508190555050565b6111d782826040518060200160405280600081525061174e565b5050565b6000600a60009054906101000a900473ffffffffffffffffffffffffffffffffffffffff16905081600a60006101000a81548173ffffffffffffffffffffffffffffffffffffffff021916908373ffffffffffffffffffffffffffffffffffffffff1602179055508173ffffffffffffffffffffffffffffffffffffffff168173ffffffffffffffffffffffffffffffffffffffff167f8be0079c531659141344cd1fd0a4f28419497f9722a3daafe3b4186f6b6457e060405160405180910390a35050565b8173ffffffffffffffffffffffffffffffffffffffff168373ffffffffffffffffffffffffffffffffffffffff161415611310576040517f08c379a000000000000000000000000000000000000000000000000000000000815260040161130790612771565b60405180910390fd5b80600560008573ffffffffffffffffffffffffffffffffffffffff1673ffffffffffffffffffffffffffffffffffffffff16815260200190815260200160002060008473ffffffffffffffffffffffffffffffffffffffff1673ffffffffffffffffffffffffffffffffffffffff16815260200190815260200160002060006101000a81548160ff0219169083151502179055508173ffffffffffffffffffffffffffffffffffffffff168373ffffffffffffffffffffffffffffffffffffffff167f17307eab39ab6107e8899845ad3d59bd9653f200f220920489ca2b5937696c31836040516114019190612674565b60405180910390a3505050565b611419848484610eb4565b611425848484846117a9565b611464576040517f08c379a000000000000000000000000000000000000000000000000000000000815260040161145b906126d1565b60405180910390fd5b50505050565b606060405180608001604052806043815260200161315b60439139905090565b606060008214156114d2576040518060400160405280600181526020017f300000000000000000000000000000000000000000000000000000000000000081525090506115e6565b600082905060005b600082146115045780806114ed90612b39565b915050600a826114fd91906129bb565b91506114da565b60008167ffffffffffffffff8111156115205761151f612c9e565b5b6040519080825280601f01601f1916602001820160405280156115525781602001600182028036833780820191505090505b5090505b600085146115df5760018261156b91906129ec565b9150600a8561157a9190612b82565b60306115869190612965565b60f81b81838151811061159c5761159b612c6f565b5b60200101907effffffffffffffffffffffffffffffffffffffffffffffffffffffffffffff1916908160001a905350600a856115d891906129bb565b9450611556565b8093505050505b919050565b60007f80ac58cd000000000000000000000000000000000000000000000000000000007bffffffffffffffffffffffffffffffffffffffffffffffffffffffff1916827bffffffffffffffffffffffffffffffffffffffffffffffffffffffff191614806116b657507f5b5e139f000000000000000000000000000000000000000000000000000000007bffffffffffffffffffffffffffffffffffffffffffffffffffffffff1916827bffffffffffffffffffffffffffffffffffffffffffffffffffffffff1916145b806116c657506116c582611940565b5b9050919050565b60008073ffffffffffffffffffffffffffffffffffffffff166002600084815260200190815260200160002060009054906101000a900473ffffffffffffffffffffffffffffffffffffffff1673ffffffffffffffffffffffffffffffffffffffff1614159050919050565b6117448383836119aa565b505050565b505050565b6117588383611abe565b61176560008484846117a9565b6117a4576040517f08c379a000000000000000000000000000000000000000000000000000000000815260040161179b906126d1565b60405180910390fd5b505050565b60006117ca8473ffffffffffffffffffffffffffffffffffffffff16611c98565b15611933578373ffffffffffffffffffffffffffffffffffffffff1663150b7a026117f3610d5e565b8786866040518563ffffffff1660e01b81526004016118159493929190612628565b602060405180830381600087803b15801561182f57600080fd5b505af192505050801561186057506040513d601f19601f8201168201806040525081019061185d919061228f565b60015b6118e3573d8060008114611890576040519150601f19603f3d011682016040523d82523d6000602084013e611895565b606091505b506000815114156118db576040517f08c379a00000000000000000000000000000000000000000000000000000000081526004016118d2906126d1565b60405180910390fd5b805181602001fd5b63150b7a0260e01b7bffffffffffffffffffffffffffffffffffffffffffffffffffffffff1916817bffffffffffffffffffffffffffffffffffffffffffffffffffffffff191614915050611938565b600190505b949350505050565b60007f01ffc9a7000000000000000000000000000000000000000000000000000000007bffffffffffffffffffffffffffffffffffffffffffffffffffffffff1916827bffffffffffffffffffffffffffffffffffffffffffffffffffffffff1916149050919050565b6119b5838383611cbb565b600073ffffffffffffffffffffffffffffffffffffffff168373ffffffffffffffffffffffffffffffffffffffff1614156119f8576119f381611cc0565b611a37565b8173ffffffffffffffffffffffffffffffffffffffff168373ffffffffffffffffffffffffffffffffffffffff1614611a3657611a358382611d09565b5b5b600073ffffffffffffffffffffffffffffffffffffffff168273ffffffffffffffffffffffffffffffffffffffff161415611a7a57611a7581611e76565b611ab9565b8273ffffffffffffffffffffffffffffffffffffffff168273ffffffffffffffffffffffffffffffffffffffff1614611ab857611ab78282611f47565b5b5b505050565b600073ffffffffffffffffffffffffffffffffffffffff168273ffffffffffffffffffffffffffffffffffffffff161415611b2e576040517f08c379a0000000000000000000000000000000000000000000000000000000008152600401611b25906127d1565b60405180910390fd5b611b37816116cd565b15611b77576040517f08c379a0000000000000000000000000000000000000000000000000000000008152600401611b6e90612731565b60405180910390fd5b611b8360008383611739565b6001600360008473ffffffffffffffffffffffffffffffffffffffff1673ffffffffffffffffffffffffffffffffffffffff1681526020019081526020016000206000828254611bd39190612965565b92505081905550816002600083815260200190815260200160002060006101000a81548173ffffffffffffffffffffffffffffffffffffffff021916908373ffffffffffffffffffffffffffffffffffffffff160217905550808273ffffffffffffffffffffffffffffffffffffffff16600073ffffffffffffffffffffffffffffffffffffffff167fddf252ad1be2c89b69c2b068fc378daa952ba7f163c4a11628f55a4df523b3ef60405160405180910390a4611c9460008383611749565b5050565b6000808273ffffffffffffffffffffffffffffffffffffffff163b119050919050565b505050565b6008805490506009600083815260200190815260200160002081905550600881908060018154018082558091505060019003906000526020600020016000909190919091505550565b60006001611d1684610919565b611d2091906129ec565b9050600060076000848152602001908152602001600020549050818114611e05576000600660008673ffffffffffffffffffffffffffffffffffffffff1673ffffffffffffffffffffffffffffffffffffffff168152602001908152602001600020600084815260200190815260200160002054905080600660008773ffffffffffffffffffffffffffffffffffffffff1673ffffffffffffffffffffffffffffffffffffffff168152602001908152602001600020600084815260200190815260200160002081905550816007600083815260200190815260200160002081905550505b6007600084815260200190815260200160002060009055600660008573ffffffffffffffffffffffffffffffffffffffff1673ffffffffffffffffffffffffffffffffffffffff16815260200190815260200160002060008381526020019081526020016000206000905550505050565b60006001600880549050611e8a91906129ec565b9050600060096000848152602001908152602001600020549050600060088381548110611eba57611eb9612c6f565b5b906000526020600020015490508060088381548110611edc57611edb612c6f565b5b906000526020600020018190555081600960008381526020019081526020016000208190555060096000858152602001908152602001600020600090556008805480611f2b57611f2a612c40565b5b6001900381819060005260206000200160009055905550505050565b6000611f5283610919565b905081600660008573ffffffffffffffffffffffffffffffffffffffff1673ffffffffffffffffffffffffffffffffffffffff168152602001908152602001600020600083815260200190815260200160002081905550806007600084815260200190815260200160002081905550505050565b6000611fd9611fd4846128f1565b6128cc565b905082815260208101848484011115611ff557611ff4612cd2565b5b612000848285612a94565b509392505050565b600081359050612017816130fe565b92915050565b60008135905061202c81613115565b92915050565b6000813590506120418161312c565b92915050565b6000815190506120568161312c565b92915050565b600082601f83011261207157612070612ccd565b5b8135612081848260208601611fc6565b91505092915050565b60008135905061209981613143565b92915050565b6000602082840312156120b5576120b4612cdc565b5b60006120c384828501612008565b91505092915050565b600080604083850312156120e3576120e2612cdc565b5b60006120f185828601612008565b925050602061210285828601612008565b9150509250929050565b60008060006060848603121561212557612124612cdc565b5b600061213386828701612008565b935050602061214486828701612008565b92505060406121558682870161208a565b9150509250925092565b6000806000806080858703121561217957612178612cdc565b5b600061218787828801612008565b945050602061219887828801612008565b93505060406121a98782880161208a565b925050606085013567ffffffffffffffff8111156121ca576121c9612cd7565b5b6121d68782880161205c565b91505092959194509250565b600080604083850312156121f9576121f8612cdc565b5b600061220785828601612008565b92505060206122188582860161201d565b9150509250929050565b6000806040838503121561223957612238612cdc565b5b600061224785828601612008565b92505060206122588582860161208a565b9150509250929050565b60006020828403121561227857612277612cdc565b5b600061228684828501612032565b91505092915050565b6000602082840312156122a5576122a4612cdc565b5b60006122b384828501612047565b91505092915050565b6000602082840312156122d2576122d1612cdc565b5b60006122e08482850161208a565b91505092915050565b6122f281612a20565b82525050565b61230181612a32565b82525050565b600061231282612922565b61231c8185612938565b935061232c818560208601612aa3565b61233581612ce1565b840191505092915050565b600061234b8261292d565b6123558185612949565b9350612365818560208601612aa3565b61236e81612ce1565b840191505092915050565b60006123848261292d565b61238e818561295a565b935061239e818560208601612aa3565b80840191505092915050565b60006123b7602b83612949565b91506123c282612cf2565b604082019050919050565b60006123da603283612949565b91506123e582612d41565b604082019050919050565b60006123fd602683612949565b915061240882612d90565b604082019050919050565b6000612420602583612949565b915061242b82612ddf565b604082019050919050565b6000612443601c83612949565b915061244e82612e2e565b602082019050919050565b6000612466602483612949565b915061247182612e57565b604082019050919050565b6000612489601983612949565b915061249482612ea6565b602082019050919050565b60006124ac602983612949565b91506124b782612ecf565b604082019050919050565b60006124cf603e83612949565b91506124da82612f1e565b604082019050919050565b60006124f2602083612949565b91506124fd82612f6d565b602082019050919050565b6000612515602083612949565b915061252082612f96565b602082019050919050565b6000612538601883612949565b915061254382612fbf565b602082019050919050565b600061255b602183612949565b915061256682612fe8565b604082019050919050565b600061257e601283612949565b915061258982613037565b602082019050919050565b60006125a1602c83612949565b91506125ac82613060565b604082019050919050565b60006125c4602e83612949565b91506125cf826130af565b604082019050919050565b6125e381612a8a565b82525050565b60006125f58285612379565b91506126018284612379565b91508190509392505050565b600060208201905061262260008301846122e9565b92915050565b600060808201905061263d60008301876122e9565b61264a60208301866122e9565b61265760408301856125da565b81810360608301526126698184612307565b905095945050505050565b600060208201905061268960008301846122f8565b92915050565b600060208201905081810360008301526126a98184612340565b905092915050565b600060208201905081810360008301526126ca816123aa565b9050919050565b600060208201905081810360008301526126ea816123cd565b9050919050565b6000602082019050818103600083015261270a816123f0565b9050919050565b6000602082019050818103600083015261272a81612413565b9050919050565b6000602082019050818103600083015261274a81612436565b9050919050565b6000602082019050818103600083015261276a81612459565b9050919050565b6000602082019050818103600083015261278a8161247c565b9050919050565b600060208201905081810360008301526127aa8161249f565b9050919050565b600060208201905081810360008301526127ca816124c2565b9050919050565b600060208201905081810360008301526127ea816124e5565b9050919050565b6000602082019050818103600083015261280a81612508565b9050919050565b6000602082019050818103600083015261282a8161252b565b9050919050565b6000602082019050818103600083015261284a8161254e565b9050919050565b6000602082019050818103600083015261286a81612571565b9050919050565b6000602082019050818103600083015261288a81612594565b9050919050565b600060208201905081810360008301526128aa816125b7565b9050919050565b60006020820190506128c660008301846125da565b92915050565b60006128d66128e7565b90506128e28282612b08565b919050565b6000604051905090565b600067ffffffffffffffff82111561290c5761290b612c9e565b5b61291582612ce1565b9050602081019050919050565b600081519050919050565b600081519050919050565b600082825260208201905092915050565b600082825260208201905092915050565b600081905092915050565b600061297082612a8a565b915061297b83612a8a565b9250827fffffffffffffffffffffffffffffffffffffffffffffffffffffffffffffffff038211156129b0576129af612bb3565b5b828201905092915050565b60006129c682612a8a565b91506129d183612a8a565b9250826129e1576129e0612be2565b5b828204905092915050565b60006129f782612a8a565b9150612a0283612a8a565b925082821015612a1557612a14612bb3565b5b828203905092915050565b6000612a2b82612a6a565b9050919050565b60008115159050919050565b60007fffffffff0000000000000000000000000000000000000000000000000000000082169050919050565b600073ffffffffffffffffffffffffffffffffffffffff82169050919050565b6000819050919050565b82818337600083830152505050565b60005b83811015612ac1578082015181840152602081019050612aa6565b83811115612ad0576000848401525b50505050565b60006002820490506001821680612aee57607f821691505b60208210811415612b0257612b01612c11565b5b50919050565b612b1182612ce1565b810181811067ffffffffffffffff82111715612b3057612b2f612c9e565b5b80604052505050565b6000612b4482612a8a565b91507fffffffffffffffffffffffffffffffffffffffffffffffffffffffffffffffff821415612b7757612b76612bb3565b5b600182019050919050565b6000612b8d82612a8a565b9150612b9883612a8a565b925082612ba857612ba7612be2565b5b828206905092915050565b7f4e487b7100000000000000000000000000000000000000000000000000000000600052601160045260246000fd5b7f4e487b7100000000000000000000000000000000000000000000000000000000600052601260045260246000fd5b7f4e487b7100000000000000000000000000000000000000000000000000000000600052602260045260246000fd5b7f4e487b7100000000000000000000000000000000000000000000000000000000600052603160045260246000fd5b7f4e487b7100000000000000000000000000000000000000000000000000000000600052603260045260246000fd5b7f4e487b7100000000000000000000000000000000000000000000000000000000600052604160045260246000fd5b600080fd5b600080fd5b600080fd5b600080fd5b6000601f19601f8301169050919050565b7f455243373231456e756d657261626c653a206f776e657220696e646578206f7560008201527f74206f6620626f756e6473000000000000000000000000000000000000000000602082015250565b7f4552433732313a207472616e7366657220746f206e6f6e20455243373231526560008201527f63656976657220696d706c656d656e7465720000000000000000000000000000602082015250565b7f4f776e61626c653a206e6577206f776e657220697320746865207a65726f206160008201527f6464726573730000000000000000000000000000000000000000000000000000602082015250565b7f4552433732313a207472616e736665722066726f6d20696e636f72726563742060008201527f6f776e6572000000000000000000000000000000000000000000000000000000602082015250565b7f4552433732313a20746f6b656e20616c7265616479206d696e74656400000000600082015250565b7f4552433732313a207472616e7366657220746f20746865207a65726f2061646460008201527f7265737300000000000000000000000000000000000000000000000000000000602082015250565b7f4552433732313a20617070726f766520746f2063616c6c657200000000000000600082015250565b7f4552433732313a2061646472657373207a65726f206973206e6f74206120766160008201527f6c6964206f776e65720000000000000000000000000000000000000000000000602082015250565b7f4552433732313a20617070726f76652063616c6c6572206973206e6f7420746f60008201527f6b656e206f776e6572206e6f7220617070726f76656420666f7220616c6c0000602082015250565b7f4552433732313a206d696e7420746f20746865207a65726f2061646472657373600082015250565b7f4f776e61626c653a2063616c6c6572206973206e6f7420746865206f776e6572600082015250565b7f4552433732313a20696e76616c696420746f6b656e2049440000000000000000600082015250565b7f4552433732313a20617070726f76616c20746f2063757272656e74206f776e6560008201527f7200000000000000000000000000000000000000000000000000000000000000602082015250565b7f4d617820737570706c7920726561636865640000000000000000000000000000600082015250565b7f455243373231456e756d657261626c653a20676c6f62616c20696e646578206f60008201527f7574206f6620626f756e64730000000000000000000000000000000000000000602082015250565b7f4552433732313a2063616c6c6572206973206e6f7420746f6b656e206f776e6560008201527f72206e6f7220617070726f766564000000000000000000000000000000000000602082015250565b61310781612a20565b811461311257600080fd5b50565b61311e81612a32565b811461312957600080fd5b50565b61313581612a3e565b811461314057600080fd5b50565b61314c81612a8a565b811461315757600080fd5b5056fe697066733a2f2f62616679626569676336697a64636c6637753677756d7369357a6c66737a6466626a6a366a767462646d36347237617a6878616e6a7163336f61612fa264697066735822122011e129df4b89a86c2fefee99d79852d89182685ab616b7fc1d9b6d94bbf5232d64736f6c63430008070033",
  "linkReferences": {},
  "deployedLinkReferences": {}
}